{
  "contractName": "FeePool",
  "abi": [
    {
      "inputs": [
        {
          "internalType": "contract IAddressResolver",
          "name": "_addressResolver",
          "type": "address"
        }
      ],
      "stateMutability": "nonpayable",
      "type": "constructor"
    },
    {
      "anonymous": false,
      "inputs": [
        {
          "indexed": false,
          "internalType": "address",
          "name": "user",
          "type": "address"
        },
        {
          "indexed": false,
          "internalType": "uint256",
          "name": "numberOfFeeTokens",
          "type": "uint256"
        },
        {
          "indexed": false,
          "internalType": "uint256",
          "name": "timestamp",
          "type": "uint256"
        }
      ],
      "name": "AddedFees",
      "type": "event"
    },
    {
      "anonymous": false,
      "inputs": [
        {
          "indexed": false,
          "internalType": "address",
          "name": "user",
          "type": "address"
        },
        {
          "indexed": false,
          "internalType": "address",
          "name": "currencyKey",
          "type": "address"
        },
        {
          "indexed": false,
          "internalType": "uint256",
          "name": "amountInUSD",
          "type": "uint256"
        },
        {
          "indexed": false,
          "internalType": "uint256",
          "name": "timestamp",
          "type": "uint256"
        }
      ],
      "name": "ClaimedFees",
      "type": "event"
    },
    {
      "anonymous": false,
      "inputs": [
        {
          "indexed": true,
          "internalType": "address",
          "name": "previousOwner",
          "type": "address"
        },
        {
          "indexed": true,
          "internalType": "address",
          "name": "newOwner",
          "type": "address"
        }
      ],
      "name": "OwnershipTransferred",
      "type": "event"
    },
    {
      "inputs": [],
      "name": "ADDRESS_RESOLVER",
      "outputs": [
        {
          "internalType": "contract IAddressResolver",
          "name": "",
          "type": "address"
        }
      ],
      "stateMutability": "view",
      "type": "function"
    },
    {
      "inputs": [
        {
          "internalType": "address",
          "name": "",
          "type": "address"
        }
      ],
      "name": "balances",
      "outputs": [
        {
          "internalType": "uint256",
          "name": "",
          "type": "uint256"
        }
      ],
      "stateMutability": "view",
      "type": "function"
    },
    {
      "inputs": [],
      "name": "isOwner",
      "outputs": [
        {
          "internalType": "bool",
          "name": "",
          "type": "bool"
        }
      ],
      "stateMutability": "view",
      "type": "function"
    },
    {
      "inputs": [],
      "name": "owner",
      "outputs": [
        {
          "internalType": "address",
          "name": "",
          "type": "address"
        }
      ],
      "stateMutability": "view",
      "type": "function"
    },
    {
      "inputs": [
        {
          "internalType": "uint256",
          "name": "",
          "type": "uint256"
        }
      ],
      "name": "positionKeys",
      "outputs": [
        {
          "internalType": "address",
          "name": "",
          "type": "address"
        }
      ],
      "stateMutability": "view",
      "type": "function"
    },
    {
      "inputs": [],
      "name": "renounceOwnership",
      "outputs": [],
      "stateMutability": "nonpayable",
      "type": "function"
    },
    {
      "inputs": [],
      "name": "totalSupply",
      "outputs": [
        {
          "internalType": "uint256",
          "name": "",
          "type": "uint256"
        }
      ],
      "stateMutability": "view",
      "type": "function"
    },
    {
      "inputs": [
        {
          "internalType": "address",
          "name": "newOwner",
          "type": "address"
        }
      ],
      "name": "transferOwnership",
      "outputs": [],
      "stateMutability": "nonpayable",
      "type": "function"
    },
    {
      "inputs": [
        {
          "internalType": "address",
          "name": "account",
          "type": "address"
        }
      ],
      "name": "getTokenBalance",
      "outputs": [
        {
          "internalType": "uint256",
          "name": "",
          "type": "uint256"
        }
      ],
      "stateMutability": "view",
      "type": "function"
    },
    {
      "inputs": [],
      "name": "getPositionsAndTotal",
      "outputs": [
        {
          "internalType": "address[]",
          "name": "",
          "type": "address[]"
        },
        {
          "internalType": "uint256[]",
          "name": "",
          "type": "uint256[]"
        },
        {
          "internalType": "uint256",
          "name": "",
          "type": "uint256"
        }
      ],
      "stateMutability": "view",
      "type": "function"
    },
    {
      "inputs": [],
      "name": "getPoolBalance",
      "outputs": [
        {
          "internalType": "uint256",
          "name": "",
          "type": "uint256"
        }
      ],
      "stateMutability": "view",
      "type": "function"
    },
    {
      "inputs": [
        {
          "internalType": "address",
          "name": "user",
          "type": "address"
        }
      ],
      "name": "getUSDBalance",
      "outputs": [
        {
          "internalType": "uint256",
          "name": "",
          "type": "uint256"
        }
      ],
      "stateMutability": "view",
      "type": "function"
    },
    {
      "inputs": [
        {
          "internalType": "address",
          "name": "currencyKey",
          "type": "address"
        },
        {
          "internalType": "uint256",
          "name": "amountInUSD",
          "type": "uint256"
        }
      ],
      "name": "claimAvailableFees",
      "outputs": [],
      "stateMutability": "nonpayable",
      "type": "function"
    },
    {
      "inputs": [
        {
          "internalType": "address",
          "name": "user",
          "type": "address"
        },
        {
          "internalType": "uint256",
          "name": "feeAmount",
          "type": "uint256"
        }
      ],
      "name": "addFees",
      "outputs": [],
      "stateMutability": "nonpayable",
      "type": "function"
    },
    {
      "inputs": [
        {
          "internalType": "address[]",
          "name": "positions",
          "type": "address[]"
        }
      ],
      "name": "addPositionKeys",
      "outputs": [],
      "stateMutability": "nonpayable",
      "type": "function"
    }
  ],
  "bytecode": "0x60a060405234801561001057600080fd5b506040516121a43803806121a48339818101604052602081101561003357600080fd5b8101908080519060200190929190505050336000806101000a81548173ffffffffffffffffffffffffffffffffffffffff021916908373ffffffffffffffffffffffffffffffffffffffff16021790555060008054906101000a900473ffffffffffffffffffffffffffffffffffffffff1673ffffffffffffffffffffffffffffffffffffffff16600073ffffffffffffffffffffffffffffffffffffffff167f8be0079c531659141344cd1fd0a4f28419497f9722a3daafe3b4186f6b6457e060405160405180910390a38073ffffffffffffffffffffffffffffffffffffffff1660808173ffffffffffffffffffffffffffffffffffffffff1660601b815250505060805160601c61203261017260003980610570528061063852806108a7528061096f52806110a652806111e552806119c652506120326000f3fe608060405234801561001057600080fd5b50600436106100f55760003560e01c8063715018a611610097578063a210c95b11610066578063a210c95b14610410578063abd70aa21461045e578063ac08c5741461047c578063f2fde38b1461052a576100f5565b8063715018a61461037e5780638da5cb5b146103885780638f32d59b146103bc578063981f3b8e146103dc576100f5565b80632322e3b9116100d35780632322e3b91461021e57806327e235e3146102765780632895a2b3146102ce5780633aecd0e314610326576100f5565b80630939b690146100fa57806318160ddd146101b25780631dfb9aae146101d0575b600080fd5b6101b06004803603602081101561011057600080fd5b810190808035906020019064010000000081111561012d57600080fd5b82018360208201111561013f57600080fd5b8035906020019184602083028401116401000000008311171561016157600080fd5b919080806020026020016040519081016040528093929190818152602001838360200280828437600081840152601f19601f82011690508083019250505050505050919291929050505061056e565b005b6101ba61089f565b6040518082815260200191505060405180910390f35b61021c600480360360408110156101e657600080fd5b81019080803573ffffffffffffffffffffffffffffffffffffffff169060200190929190803590602001909291905050506108a5565b005b6102606004803603602081101561023457600080fd5b81019080803573ffffffffffffffffffffffffffffffffffffffff169060200190929190505050610cf8565b6040518082815260200191505060405180910390f35b6102b86004803603602081101561028c57600080fd5b81019080803573ffffffffffffffffffffffffffffffffffffffff169060200190929190505050610e16565b6040518082815260200191505060405180910390f35b6102fa600480360360208110156102e457600080fd5b8101908080359060200190929190505050610e2e565b604051808273ffffffffffffffffffffffffffffffffffffffff16815260200191505060405180910390f35b6103686004803603602081101561033c57600080fd5b81019080803573ffffffffffffffffffffffffffffffffffffffff169060200190929190505050610e6a565b6040518082815260200191505060405180910390f35b610386610f55565b005b610390611024565b604051808273ffffffffffffffffffffffffffffffffffffffff16815260200191505060405180910390f35b6103c461104d565b60405180821515815260200191505060405180910390f35b6103e46110a4565b604051808273ffffffffffffffffffffffffffffffffffffffff16815260200191505060405180910390f35b61045c6004803603604081101561042657600080fd5b81019080803573ffffffffffffffffffffffffffffffffffffffff169060200190929190803590602001909291905050506110c8565b005b6104666119a8565b6040518082815260200191505060405180910390f35b6104846119be565b604051808060200180602001848152602001838103835286818151815260200191508051906020019060200280838360005b838110156104d15780820151818401526020810190506104b6565b50505050905001838103825285818151815260200191508051906020019060200280838360005b838110156105135780820151818401526020810190506104f8565b505050509050019550505050505060405180910390f35b61056c6004803603602081101561054057600080fd5b81019080803573ffffffffffffffffffffffffffffffffffffffff169060200190929190505050611e00565b005b7f000000000000000000000000000000000000000000000000000000000000000073ffffffffffffffffffffffffffffffffffffffff1663e51f8aba336040518263ffffffff1660e01b8152600401808273ffffffffffffffffffffffffffffffffffffffff16815260200191505060206040518083038186803b1580156105f557600080fd5b505afa158015610609573d6000803e3d6000fd5b505050506040513d602081101561061f57600080fd5b8101908080519060200190929190505050806106f957507f000000000000000000000000000000000000000000000000000000000000000073ffffffffffffffffffffffffffffffffffffffff1663debd7e8e336040518263ffffffff1660e01b8152600401808273ffffffffffffffffffffffffffffffffffffffff16815260200191505060206040518083038186803b1580156106bd57600080fd5b505afa1580156106d1573d6000803e3d6000fd5b505050506040513d60208110156106e757600080fd5b81019080805190602001909291905050505b61074e576040517f08c379a0000000000000000000000000000000000000000000000000000000008152600401808060200182810382526039815260200180611fc46039913960400191505060405180910390fd5b60005b815181101561089b57600082828151811061076857fe5b602002602001015173ffffffffffffffffffffffffffffffffffffffff166370a08231306040518263ffffffff1660e01b8152600401808273ffffffffffffffffffffffffffffffffffffffff16815260200191505060206040518083038186803b1580156107d657600080fd5b505afa1580156107ea573d6000803e3d6000fd5b505050506040513d602081101561080057600080fd5b8101908080519060200190929190505050141561088e57600282828151811061082557fe5b60200260200101519080600181540180825580915050600190039060005260206000200160009091909190916101000a81548173ffffffffffffffffffffffffffffffffffffffff021916908373ffffffffffffffffffffffffffffffffffffffff1602179055505b8080600101915050610751565b5050565b60035481565b7f000000000000000000000000000000000000000000000000000000000000000073ffffffffffffffffffffffffffffffffffffffff1663e51f8aba336040518263ffffffff1660e01b8152600401808273ffffffffffffffffffffffffffffffffffffffff16815260200191505060206040518083038186803b15801561092c57600080fd5b505afa158015610940573d6000803e3d6000fd5b505050506040513d602081101561095657600080fd5b810190808051906020019092919050505080610a3057507f000000000000000000000000000000000000000000000000000000000000000073ffffffffffffffffffffffffffffffffffffffff1663debd7e8e336040518263ffffffff1660e01b8152600401808273ffffffffffffffffffffffffffffffffffffffff16815260200191505060206040518083038186803b1580156109f457600080fd5b505afa158015610a08573d6000803e3d6000fd5b505050506040513d6020811015610a1e57600080fd5b81019080805190602001909291905050505b610a85576040517f08c379a0000000000000000000000000000000000000000000000000000000008152600401808060200182810382526039815260200180611fc46039913960400191505060405180910390fd5b60008111610afb576040517f08c379a000000000000000000000000000000000000000000000000000000000815260040180806020018281038252601d8152602001807f416d6f756e74206d7573742062652067726561746572207468616e203000000081525060200191505060405180910390fd5b600073ffffffffffffffffffffffffffffffffffffffff168273ffffffffffffffffffffffffffffffffffffffff161415610b9e576040517f08c379a000000000000000000000000000000000000000000000000000000000815260040180806020018281038252600f8152602001807f496e76616c69642061646472657373000000000000000000000000000000000081525060200191505060405180910390fd5b6000610ba86119a8565b905060008060035411610bbb5782610be3565b610be282610bd485600354611e1d90919063ffffffff16565b611e5490919063ffffffff16565b5b9050610c3781600160008773ffffffffffffffffffffffffffffffffffffffff1673ffffffffffffffffffffffffffffffffffffffff16815260200190815260200160002054611e6d90919063ffffffff16565b600160008673ffffffffffffffffffffffffffffffffffffffff1673ffffffffffffffffffffffffffffffffffffffff16815260200190815260200160002081905550610c8f81600354611e6d90919063ffffffff16565b6003819055507f518f07bfa10648ee8d2f2a8fcb7840ca5e386686d906b282bc58e68b28828770848442604051808473ffffffffffffffffffffffffffffffffffffffff168152602001838152602001828152602001935050505060405180910390a150505050565b60008073ffffffffffffffffffffffffffffffffffffffff168273ffffffffffffffffffffffffffffffffffffffff161415610d9c576040517f08c379a000000000000000000000000000000000000000000000000000000000815260040180806020018281038252600f8152602001807f496e76616c69642061646472657373000000000000000000000000000000000081525060200191505060405180910390fd5b6000610da66119a8565b9050610e0e600354610e00600160008773ffffffffffffffffffffffffffffffffffffffff1673ffffffffffffffffffffffffffffffffffffffff1681526020019081526020016000205484611e1d90919063ffffffff16565b611e5490919063ffffffff16565b915050919050565b60016020528060005260406000206000915090505481565b60028181548110610e3b57fe5b906000526020600020016000915054906101000a900473ffffffffffffffffffffffffffffffffffffffff1681565b60008073ffffffffffffffffffffffffffffffffffffffff168273ffffffffffffffffffffffffffffffffffffffff161415610f0e576040517f08c379a000000000000000000000000000000000000000000000000000000000815260040180806020018281038252600f8152602001807f496e76616c69642061646472657373000000000000000000000000000000000081525060200191505060405180910390fd5b600160008373ffffffffffffffffffffffffffffffffffffffff1673ffffffffffffffffffffffffffffffffffffffff168152602001908152602001600020549050919050565b610f5d61104d565b610f6657600080fd5b600073ffffffffffffffffffffffffffffffffffffffff1660008054906101000a900473ffffffffffffffffffffffffffffffffffffffff1673ffffffffffffffffffffffffffffffffffffffff167f8be0079c531659141344cd1fd0a4f28419497f9722a3daafe3b4186f6b6457e060405160405180910390a360008060006101000a81548173ffffffffffffffffffffffffffffffffffffffff021916908373ffffffffffffffffffffffffffffffffffffffff160217905550565b60008060009054906101000a900473ffffffffffffffffffffffffffffffffffffffff16905090565b60008060009054906101000a900473ffffffffffffffffffffffffffffffffffffffff1673ffffffffffffffffffffffffffffffffffffffff163373ffffffffffffffffffffffffffffffffffffffff1614905090565b7f000000000000000000000000000000000000000000000000000000000000000081565b600073ffffffffffffffffffffffffffffffffffffffff168273ffffffffffffffffffffffffffffffffffffffff16141561116b576040517f08c379a00000000000000000000000000000000000000000000000000000000081526004018080602001828103825260148152602001807f496e76616c69642063757272656e6379206b657900000000000000000000000081525060200191505060405180910390fd5b600081116111e1576040517f08c379a000000000000000000000000000000000000000000000000000000000815260040180806020018281038252601d8152602001807f416d6f756e74206d7573742062652067726561746572207468616e203000000081525060200191505060405180910390fd5b60007f000000000000000000000000000000000000000000000000000000000000000073ffffffffffffffffffffffffffffffffffffffff166304433bbc6040518163ffffffff1660e01b81526004018080602001828103825260128152602001807f426173655562657377617041646170746572000000000000000000000000000081525060200191505060206040518083038186803b15801561128557600080fd5b505afa158015611299573d6000803e3d6000fd5b505050506040513d60208110156112af57600080fd5b8101908080519060200190929190505050905060006112cd33610cf8565b905060008473ffffffffffffffffffffffffffffffffffffffff166370a08231306040518263ffffffff1660e01b8152600401808273ffffffffffffffffffffffffffffffffffffffff16815260200191505060206040518083038186803b15801561133857600080fd5b505afa15801561134c573d6000803e3d6000fd5b505050506040513d602081101561136257600080fd5b8101908080519060200190929190505050905060008373ffffffffffffffffffffffffffffffffffffffff166341976e09876040518263ffffffff1660e01b8152600401808273ffffffffffffffffffffffffffffffffffffffff16815260200191505060206040518083038186803b1580156113de57600080fd5b505afa1580156113f2573d6000803e3d6000fd5b505050506040513d602081101561140857600080fd5b8101908080519060200190929190505050905060006114308284611e1d90919063ffffffff16565b9050858410156114a8576040517f08c379a00000000000000000000000000000000000000000000000000000000081526004018080602001828103825260198152602001807f4e6f7420656e6f756768206665657320617661696c61626c650000000000000081525060200191505060405180910390fd5b85811015611501576040517f08c379a000000000000000000000000000000000000000000000000000000000815260040180806020018281038252602c815260200180611f98602c913960400191505060405180910390fd5b60006115168388611e5490919063ffffffff16565b9050600061157e866115708a600160003373ffffffffffffffffffffffffffffffffffffffff1673ffffffffffffffffffffffffffffffffffffffff16815260200190815260200160002054611e1d90919063ffffffff16565b611e5490919063ffffffff16565b90506115d281600160003373ffffffffffffffffffffffffffffffffffffffff1673ffffffffffffffffffffffffffffffffffffffff16815260200190815260200160002054611e8990919063ffffffff16565b600160003373ffffffffffffffffffffffffffffffffffffffff1673ffffffffffffffffffffffffffffffffffffffff1681526020019081526020016000208190555061162a81600354611e8990919063ffffffff16565b6003819055508873ffffffffffffffffffffffffffffffffffffffff1663a9059cbb33846040518363ffffffff1660e01b8152600401808373ffffffffffffffffffffffffffffffffffffffff16815260200182815260200192505050602060405180830381600087803b1580156116a157600080fd5b505af11580156116b5573d6000803e3d6000fd5b505050506040513d60208110156116cb57600080fd5b81019080805190602001909291905050505060005b60028054905081101561176a578973ffffffffffffffffffffffffffffffffffffffff166002828154811061171157fe5b9060005260206000200160009054906101000a900473ffffffffffffffffffffffffffffffffffffffff1673ffffffffffffffffffffffffffffffffffffffff16141561175d5761176a565b80806001019150506116e0565b60006002828154811061177957fe5b9060005260206000200160009054906101000a900473ffffffffffffffffffffffffffffffffffffffff1673ffffffffffffffffffffffffffffffffffffffff166370a08231306040518263ffffffff1660e01b8152600401808273ffffffffffffffffffffffffffffffffffffffff16815260200191505060206040518083038186803b15801561180a57600080fd5b505afa15801561181e573d6000803e3d6000fd5b505050506040513d602081101561183457600080fd5b810190808051906020019092919050505014156119215760026001600280549050038154811061186057fe5b9060005260206000200160009054906101000a900473ffffffffffffffffffffffffffffffffffffffff166002828154811061189857fe5b9060005260206000200160006101000a81548173ffffffffffffffffffffffffffffffffffffffff021916908373ffffffffffffffffffffffffffffffffffffffff16021790555060028054806118eb57fe5b6001900381819060005260206000200160006101000a81549073ffffffffffffffffffffffffffffffffffffffff021916905590555b7f44878741c9a3ffd3f18f77c15d6462b695bab528dee63a6ea7a1c83f3c8ab45c338b8b42604051808573ffffffffffffffffffffffffffffffffffffffff1681526020018473ffffffffffffffffffffffffffffffffffffffff16815260200183815260200182815260200194505050505060405180910390a150505050505050505050565b6000806119b36119be565b925050508091505090565b6060806000807f000000000000000000000000000000000000000000000000000000000000000073ffffffffffffffffffffffffffffffffffffffff166304433bbc6040518163ffffffff1660e01b81526004018080602001828103825260128152602001807f426173655562657377617041646170746572000000000000000000000000000081525060200191505060206040518083038186803b158015611a6657600080fd5b505afa158015611a7a573d6000803e3d6000fd5b505050506040513d6020811015611a9057600080fd5b81019080805190602001909291905050509050606060028054905067ffffffffffffffff81118015611ac157600080fd5b50604051908082528060200260200182016040528015611af05781602001602082028036833780820191505090505b509050606060028054905067ffffffffffffffff81118015611b1157600080fd5b50604051908082528060200260200182016040528015611b405781602001602082028036833780820191505090505b5090506000805b600280549050811015611ded5760028181548110611b6157fe5b9060005260206000200160009054906101000a900473ffffffffffffffffffffffffffffffffffffffff1673ffffffffffffffffffffffffffffffffffffffff166370a08231306040518263ffffffff1660e01b8152600401808273ffffffffffffffffffffffffffffffffffffffff16815260200191505060206040518083038186803b158015611bf257600080fd5b505afa158015611c06573d6000803e3d6000fd5b505050506040513d6020811015611c1c57600080fd5b8101908080519060200190929190505050838281518110611c3957fe5b60200260200101818152505060028181548110611c5257fe5b9060005260206000200160009054906101000a900473ffffffffffffffffffffffffffffffffffffffff16848281518110611c8957fe5b602002602001019073ffffffffffffffffffffffffffffffffffffffff16908173ffffffffffffffffffffffffffffffffffffffff168152505060008573ffffffffffffffffffffffffffffffffffffffff166341976e0960028481548110611cee57fe5b9060005260206000200160009054906101000a900473ffffffffffffffffffffffffffffffffffffffff166040518263ffffffff1660e01b8152600401808273ffffffffffffffffffffffffffffffffffffffff16815260200191505060206040518083038186803b158015611d6357600080fd5b505afa158015611d77573d6000803e3d6000fd5b505050506040513d6020811015611d8d57600080fd5b810190808051906020019092919050505090506000611dc8858481518110611db157fe5b602002602001015183611e1d90919063ffffffff16565b9050611ddd8185611e6d90919063ffffffff16565b5050508080600101915050611b47565b5082828296509650965050505050909192565b611e0861104d565b611e1157600080fd5b611e1a81611ea0565b50565b600080831415611e305760009050611e4e565b6000828402905082848281611e4157fe5b0414611e4957fe5b809150505b92915050565b600080828481611e6057fe5b0490508091505092915050565b600080828401905083811015611e7f57fe5b8091505092915050565b600082821115611e9557fe5b818303905092915050565b600073ffffffffffffffffffffffffffffffffffffffff168173ffffffffffffffffffffffffffffffffffffffff161415611eda57600080fd5b8073ffffffffffffffffffffffffffffffffffffffff1660008054906101000a900473ffffffffffffffffffffffffffffffffffffffff1673ffffffffffffffffffffffffffffffffffffffff167f8be0079c531659141344cd1fd0a4f28419497f9722a3daafe3b4186f6b6457e060405160405180910390a3806000806101000a81548173ffffffffffffffffffffffffffffffffffffffff021916908373ffffffffffffffffffffffffffffffffffffffff1602179055505056fe46656520706f6f6c20646f65736e2774206861766520656e6f75676820746f6b656e7320696e2061737365744f6e6c792074686520506f6f6c206f7220537472617465677920636f6e74726163742063616e2063616c6c20746869732066756e6374696f6ea2646970667358221220af71281ebcf6556ae678e47a87735b200fd599e68052c599c4a6d7ddd1e0b71364736f6c634300060c0033",
  "immutableReferences": {
    "16": [
      {
        "length": 32,
        "start": 1392
      },
      {
        "length": 32,
        "start": 1592
      },
      {
        "length": 32,
        "start": 2215
      },
      {
        "length": 32,
        "start": 2415
      },
      {
        "length": 32,
        "start": 4262
      },
      {
        "length": 32,
        "start": 4581
      },
      {
        "length": 32,
        "start": 6598
      }
    ]
  },
  "source": "pragma solidity >=0.5.0;\r\n\r\n//Libraries\r\nimport './libraries/SafeMath.sol';\r\n\r\n// Inheritance\r\nimport \"./Ownable.sol\";\r\nimport './interfaces/IFeePool.sol';\r\n\r\n// Internal references\r\nimport \"./interfaces/IERC20.sol\";\r\nimport \"./interfaces/IAddressResolver.sol\";\r\nimport \"./interfaces/IBaseUbeswapAdapter.sol\";\r\n\r\ncontract FeePool is Ownable, IFeePool {\r\n    using SafeMath for uint;\r\n\r\n    IAddressResolver public immutable ADDRESS_RESOLVER;\r\n\r\n    mapping (address => uint) public balances;\r\n    address[] public positionKeys;\r\n    uint public totalSupply;\r\n\r\n    constructor(IAddressResolver _addressResolver) public Ownable() {\r\n        ADDRESS_RESOLVER = _addressResolver;\r\n    }\r\n\r\n    /* ========== VIEWS ========== */\r\n\r\n    /**\r\n    * @notice Returns the number of fee tokens the user has\r\n    * @param account Address of the user\r\n    * @return uint Number of fee tokens\r\n    */\r\n    function getTokenBalance(address account) external view override returns (uint) {\r\n        require(account != address(0), \"Invalid address\");\r\n\r\n        return balances[account];\r\n    }\r\n\r\n    /**\r\n    * @dev Returns the currency address and balance of each position the pool has, as well as the cumulative value\r\n    * @return (address[], uint[], uint) Currency address and balance of each position the pool has, and the cumulative value of positions\r\n    */\r\n    function getPositionsAndTotal() public view override returns (address[] memory, uint[] memory, uint) {\r\n        address baseUbeswapAdapterAddress = ADDRESS_RESOLVER.getContractAddress(\"BaseUbeswapAdapter\");\r\n        address[] memory addresses = new address[](positionKeys.length);\r\n        uint[] memory balances = new uint[](positionKeys.length);\r\n        uint sum = 0;\r\n\r\n        for (uint i = 0; i < positionKeys.length; i++)\r\n        {\r\n            balances[i] = IERC20(positionKeys[i]).balanceOf(address(this));\r\n            addresses[i] = positionKeys[i];\r\n\r\n            uint USDperToken = IBaseUbeswapAdapter(baseUbeswapAdapterAddress).getPrice(positionKeys[i]);\r\n            uint positionBalanceInUSD = USDperToken.mul(balances[i]);\r\n            sum.add(positionBalanceInUSD);\r\n        }\r\n\r\n        return (addresses, balances, sum);\r\n    }\r\n\r\n    /**\r\n    * @dev Returns the value of the pool in USD\r\n    * @return uint Value of the pool in USD\r\n    */\r\n    function getPoolBalance() public view override returns (uint) {\r\n        (,, uint positionBalance) = getPositionsAndTotal();\r\n        \r\n        return positionBalance;\r\n    }\r\n\r\n    /**\r\n    * @dev Returns the balance of the user in USD\r\n    * @return uint Balance of the user in USD\r\n    */\r\n    function getUSDBalance(address user) public view override returns (uint) {\r\n        require(user != address(0), \"Invalid address\");\r\n\r\n        uint poolBalance = getPoolBalance();\r\n\r\n        return poolBalance.mul(balances[user]).div(totalSupply);\r\n    }\r\n\r\n    /* ========== MUTATIVE FUNCTIONS ========== */\r\n\r\n    /**\r\n    * @notice Allow a user to claim available fees in the specified currency\r\n    * @param currencyKey Address of the currency to claim \r\n    * @param amountInUSD Amount of fees to claim in USD\r\n    */\r\n    function claimAvailableFees(address currencyKey, uint amountInUSD) external override {\r\n        require(currencyKey != address(0), \"Invalid currency key\");\r\n        require(amountInUSD > 0, \"Amount must be greater than 0\");\r\n\r\n        address baseUbeswapAdapterAddress = ADDRESS_RESOLVER.getContractAddress(\"BaseUbeswapAdapter\");\r\n        uint userUSDBalance = getUSDBalance(msg.sender);\r\n        uint poolAssetBalance = IERC20(currencyKey).balanceOf(address(this));\r\n        uint USDperAssetToken = IBaseUbeswapAdapter(baseUbeswapAdapterAddress).getPrice(currencyKey);\r\n        uint assetBalanceInUSD = poolAssetBalance.mul(USDperAssetToken);\r\n    \r\n        require(userUSDBalance >= amountInUSD, \"Not enough fees available\");\r\n        require(assetBalanceInUSD >= amountInUSD, \"Fee pool doesn't have enough tokens in asset\");\r\n\r\n        uint numberOfAssetTokens = amountInUSD.div(USDperAssetToken);\r\n        uint numberOfFeeTokens = balances[msg.sender].mul(amountInUSD).div(userUSDBalance);\r\n\r\n        balances[msg.sender] = balances[msg.sender].sub(numberOfFeeTokens);\r\n        totalSupply = totalSupply.sub(numberOfFeeTokens);\r\n\r\n        IERC20(currencyKey).transfer(msg.sender, numberOfAssetTokens);\r\n\r\n        //Find index of position in positionKeys array\r\n        uint index;\r\n        for (index = 0; index < positionKeys.length; index++)\r\n        {\r\n            if (positionKeys[index] == currencyKey)\r\n            {\r\n                break;\r\n            }\r\n        }\r\n\r\n        //Remove position key if no balance left\r\n        if (IERC20(positionKeys[index]).balanceOf(address(this)) == 0)\r\n        {\r\n            positionKeys[index] = positionKeys[positionKeys.length - 1];\r\n            positionKeys.pop();\r\n        }\r\n\r\n        emit ClaimedFees(msg.sender, currencyKey, amountInUSD, block.timestamp);\r\n    }\r\n\r\n    /**\r\n    * @notice Adds fees to user\r\n    * @notice Function gets called by Pool whenever users withdraw for a profit\r\n    * @param user Address of the user\r\n    * @param feeAmount USD value of fee\r\n    */\r\n    function addFees(address user, uint feeAmount) public override onlyPoolOrStrategy {\r\n        require(feeAmount > 0, \"Amount must be greater than 0\");\r\n        require(user != address(0), \"Invalid address\");\r\n\r\n        uint poolBalance = getPoolBalance();\r\n        uint numberOfFeeTokens = (totalSupply > 0) ? totalSupply.mul(feeAmount).div(poolBalance) : feeAmount;\r\n        balances[user] = balances[user].add(numberOfFeeTokens);\r\n        totalSupply = totalSupply.add(numberOfFeeTokens);\r\n\r\n        emit AddedFees(user, feeAmount, block.timestamp);\r\n    }\r\n\r\n    /**\r\n    * @notice Adds currency key to positionKeys array if no position yet\r\n    * @notice Function gets called by Pool whenever users pay performance fee\r\n    * @param positions Address of each position the pool/bot had when paying fee\r\n    */\r\n    function addPositionKeys(address[] memory positions) public override onlyPoolOrStrategy {\r\n        //Add positions to positionKeys array if no existing position\r\n        for (uint i = 0; i < positions.length; i++)\r\n        {\r\n            if (IERC20(positions[i]).balanceOf(address(this)) == 0)\r\n            {\r\n                positionKeys.push(positions[i]);\r\n            }\r\n        }\r\n    }\r\n\r\n    /* ========== MODIFIERS ========== */\r\n\r\n    modifier onlyPoolOrStrategy() {\r\n        require(ADDRESS_RESOLVER.checkIfPoolAddressIsValid(msg.sender) || ADDRESS_RESOLVER.checkIfStrategyAddressIsValid(msg.sender), \"Only the Pool or Strategy contract can call this function\");\r\n        _;\r\n    }\r\n\r\n    /* ========== EVENTS ========== */\r\n\r\n    event ClaimedFees(address user, address currencyKey, uint amountInUSD, uint timestamp);\r\n    event AddedFees(address user, uint numberOfFeeTokens, uint timestamp);\r\n}",
  "sourcePath": "C:/Users/xavie/OneDrive/Desktop/TradeGen/Github/tradegen/contracts/FeePool.sol",
  "compiler": {
    "name": "solc",
    "version": "0.6.12+commit.27d51765.Emscripten.clang"
  },
  "schemaVersion": "3.4.1",
  "updatedAt": "2021-07-20T02:22:18.275Z",
  "devdoc": {
    "kind": "dev",
    "methods": {
      "addFees(address,uint256)": {
        "params": {
          "feeAmount": "USD value of fee",
          "user": "Address of the user"
        }
      },
      "addPositionKeys(address[])": {
        "params": {
          "positions": "Address of each position the pool/bot had when paying fee"
        }
      },
      "claimAvailableFees(address,uint256)": {
        "params": {
          "amountInUSD": "Amount of fees to claim in USD",
          "currencyKey": "Address of the currency to claim "
        }
      },
      "getPoolBalance()": {
        "details": "Returns the value of the pool in USD",
        "returns": {
          "_0": "uint Value of the pool in USD"
        }
      },
      "getPositionsAndTotal()": {
        "details": "Returns the currency address and balance of each position the pool has, as well as the cumulative value",
        "returns": {
          "_0": "(address[], uint[], uint) Currency address and balance of each position the pool has, and the cumulative value of positions"
        }
      },
      "getTokenBalance(address)": {
        "params": {
          "account": "Address of the user"
        },
        "returns": {
          "_0": "uint Number of fee tokens"
        }
      },
      "getUSDBalance(address)": {
        "details": "Returns the balance of the user in USD",
        "returns": {
          "_0": "uint Balance of the user in USD"
        }
      },
      "isOwner()": {
        "returns": {
          "_0": "true if `msg.sender` is the owner of the contract."
        }
      },
      "owner()": {
        "returns": {
          "_0": "the address of the owner."
        }
      },
      "renounceOwnership()": {
        "details": "Allows the current owner to relinquish control of the contract."
      },
      "transferOwnership(address)": {
        "details": "Allows the current owner to transfer control of the contract to a newOwner.",
        "params": {
          "newOwner": "The address to transfer ownership to."
        }
      }
    },
    "version": 1
  },
  "userdoc": {
    "kind": "user",
    "methods": {
      "addFees(address,uint256)": {
        "notice": "Adds fees to userFunction gets called by Pool whenever users withdraw for a profit"
      },
      "addPositionKeys(address[])": {
        "notice": "Adds currency key to positionKeys array if no position yetFunction gets called by Pool whenever users pay performance fee"
      },
      "claimAvailableFees(address,uint256)": {
        "notice": "Allow a user to claim available fees in the specified currency"
      },
      "getTokenBalance(address)": {
        "notice": "Returns the number of fee tokens the user has"
      },
      "renounceOwnership()": {
        "notice": "Renouncing to ownership will leave the contract without an owner. It will not be possible to call the functions with the `onlyOwner` modifier anymore."
      }
    },
    "version": 1
  }
}