{
  "contractName": "Pool",
  "abi": [
    {
      "inputs": [
        {
          "internalType": "string",
          "name": "name",
          "type": "string"
        },
        {
          "internalType": "uint256",
          "name": "performanceFee",
          "type": "uint256"
        },
        {
          "internalType": "address",
          "name": "manager",
          "type": "address"
        },
        {
          "internalType": "contract IAddressResolver",
          "name": "addressResolver",
          "type": "address"
        }
      ],
      "stateMutability": "nonpayable",
      "type": "constructor"
    },
    {
      "anonymous": false,
      "inputs": [
        {
          "indexed": true,
          "internalType": "address",
          "name": "owner",
          "type": "address"
        },
        {
          "indexed": true,
          "internalType": "address",
          "name": "spender",
          "type": "address"
        },
        {
          "indexed": false,
          "internalType": "uint256",
          "name": "value",
          "type": "uint256"
        }
      ],
      "name": "Approval",
      "type": "event"
    },
    {
      "anonymous": false,
      "inputs": [
        {
          "indexed": true,
          "internalType": "address",
          "name": "from",
          "type": "address"
        },
        {
          "indexed": true,
          "internalType": "address",
          "name": "to",
          "type": "address"
        },
        {
          "indexed": false,
          "internalType": "uint256",
          "name": "value",
          "type": "uint256"
        }
      ],
      "name": "Transfer",
      "type": "event"
    },
    {
      "inputs": [],
      "name": "ADDRESS_RESOLVER",
      "outputs": [
        {
          "internalType": "contract IAddressResolver",
          "name": "",
          "type": "address"
        }
      ],
      "stateMutability": "view",
      "type": "function"
    },
    {
      "inputs": [
        {
          "internalType": "address",
          "name": "",
          "type": "address"
        }
      ],
      "name": "_balanceOf",
      "outputs": [
        {
          "internalType": "uint256",
          "name": "",
          "type": "uint256"
        }
      ],
      "stateMutability": "view",
      "type": "function"
    },
    {
      "inputs": [
        {
          "internalType": "address",
          "name": "",
          "type": "address"
        }
      ],
      "name": "_deposits",
      "outputs": [
        {
          "internalType": "uint256",
          "name": "",
          "type": "uint256"
        }
      ],
      "stateMutability": "view",
      "type": "function"
    },
    {
      "inputs": [],
      "name": "_farmAddress",
      "outputs": [
        {
          "internalType": "address",
          "name": "",
          "type": "address"
        }
      ],
      "stateMutability": "view",
      "type": "function"
    },
    {
      "inputs": [],
      "name": "_manager",
      "outputs": [
        {
          "internalType": "address",
          "name": "",
          "type": "address"
        }
      ],
      "stateMutability": "view",
      "type": "function"
    },
    {
      "inputs": [],
      "name": "_name",
      "outputs": [
        {
          "internalType": "string",
          "name": "",
          "type": "string"
        }
      ],
      "stateMutability": "view",
      "type": "function"
    },
    {
      "inputs": [],
      "name": "_performanceFee",
      "outputs": [
        {
          "internalType": "uint256",
          "name": "",
          "type": "uint256"
        }
      ],
      "stateMutability": "view",
      "type": "function"
    },
    {
      "inputs": [
        {
          "internalType": "uint256",
          "name": "",
          "type": "uint256"
        }
      ],
      "name": "_positionKeys",
      "outputs": [
        {
          "internalType": "address",
          "name": "",
          "type": "address"
        }
      ],
      "stateMutability": "view",
      "type": "function"
    },
    {
      "inputs": [],
      "name": "_totalDeposits",
      "outputs": [
        {
          "internalType": "uint256",
          "name": "",
          "type": "uint256"
        }
      ],
      "stateMutability": "view",
      "type": "function"
    },
    {
      "inputs": [],
      "name": "_totalSupply",
      "outputs": [
        {
          "internalType": "uint256",
          "name": "",
          "type": "uint256"
        }
      ],
      "stateMutability": "view",
      "type": "function"
    },
    {
      "inputs": [
        {
          "internalType": "address",
          "name": "",
          "type": "address"
        },
        {
          "internalType": "address",
          "name": "",
          "type": "address"
        }
      ],
      "name": "allowance",
      "outputs": [
        {
          "internalType": "uint256",
          "name": "",
          "type": "uint256"
        }
      ],
      "stateMutability": "view",
      "type": "function"
    },
    {
      "inputs": [],
      "name": "name",
      "outputs": [
        {
          "internalType": "string",
          "name": "",
          "type": "string"
        }
      ],
      "stateMutability": "view",
      "type": "function"
    },
    {
      "inputs": [],
      "name": "symbol",
      "outputs": [
        {
          "internalType": "string",
          "name": "",
          "type": "string"
        }
      ],
      "stateMutability": "view",
      "type": "function"
    },
    {
      "inputs": [],
      "name": "decimals",
      "outputs": [
        {
          "internalType": "uint8",
          "name": "",
          "type": "uint8"
        }
      ],
      "stateMutability": "view",
      "type": "function"
    },
    {
      "inputs": [],
      "name": "getFarmAddress",
      "outputs": [
        {
          "internalType": "address",
          "name": "",
          "type": "address"
        }
      ],
      "stateMutability": "view",
      "type": "function"
    },
    {
      "inputs": [],
      "name": "getManagerAddress",
      "outputs": [
        {
          "internalType": "address",
          "name": "",
          "type": "address"
        }
      ],
      "stateMutability": "view",
      "type": "function"
    },
    {
      "inputs": [],
      "name": "getPositionsAndTotal",
      "outputs": [
        {
          "internalType": "address[]",
          "name": "",
          "type": "address[]"
        },
        {
          "internalType": "uint256[]",
          "name": "",
          "type": "uint256[]"
        },
        {
          "internalType": "uint256",
          "name": "",
          "type": "uint256"
        }
      ],
      "stateMutability": "view",
      "type": "function"
    },
    {
      "inputs": [],
      "name": "getAvailableFunds",
      "outputs": [
        {
          "internalType": "uint256",
          "name": "",
          "type": "uint256"
        }
      ],
      "stateMutability": "view",
      "type": "function"
    },
    {
      "inputs": [],
      "name": "getPoolBalance",
      "outputs": [
        {
          "internalType": "uint256",
          "name": "",
          "type": "uint256"
        }
      ],
      "stateMutability": "view",
      "type": "function"
    },
    {
      "inputs": [
        {
          "internalType": "address",
          "name": "user",
          "type": "address"
        }
      ],
      "name": "getUSDBalance",
      "outputs": [
        {
          "internalType": "uint256",
          "name": "",
          "type": "uint256"
        }
      ],
      "stateMutability": "view",
      "type": "function"
    },
    {
      "inputs": [
        {
          "internalType": "address",
          "name": "user",
          "type": "address"
        }
      ],
      "name": "balanceOf",
      "outputs": [
        {
          "internalType": "uint256",
          "name": "",
          "type": "uint256"
        }
      ],
      "stateMutability": "view",
      "type": "function"
    },
    {
      "inputs": [],
      "name": "totalSupply",
      "outputs": [
        {
          "internalType": "uint256",
          "name": "",
          "type": "uint256"
        }
      ],
      "stateMutability": "view",
      "type": "function"
    },
    {
      "inputs": [],
      "name": "getPerformanceFee",
      "outputs": [
        {
          "internalType": "uint256",
          "name": "",
          "type": "uint256"
        }
      ],
      "stateMutability": "view",
      "type": "function"
    },
    {
      "inputs": [
        {
          "internalType": "address",
          "name": "spender",
          "type": "address"
        },
        {
          "internalType": "uint256",
          "name": "value",
          "type": "uint256"
        }
      ],
      "name": "approve",
      "outputs": [
        {
          "internalType": "bool",
          "name": "",
          "type": "bool"
        }
      ],
      "stateMutability": "nonpayable",
      "type": "function"
    },
    {
      "inputs": [
        {
          "internalType": "address",
          "name": "to",
          "type": "address"
        },
        {
          "internalType": "uint256",
          "name": "value",
          "type": "uint256"
        }
      ],
      "name": "transfer",
      "outputs": [
        {
          "internalType": "bool",
          "name": "",
          "type": "bool"
        }
      ],
      "stateMutability": "nonpayable",
      "type": "function"
    },
    {
      "inputs": [
        {
          "internalType": "address",
          "name": "from",
          "type": "address"
        },
        {
          "internalType": "address",
          "name": "to",
          "type": "address"
        },
        {
          "internalType": "uint256",
          "name": "value",
          "type": "uint256"
        }
      ],
      "name": "transferFrom",
      "outputs": [
        {
          "internalType": "bool",
          "name": "",
          "type": "bool"
        }
      ],
      "stateMutability": "nonpayable",
      "type": "function"
    },
    {
      "inputs": [
        {
          "internalType": "address",
          "name": "user",
          "type": "address"
        },
        {
          "internalType": "uint256",
          "name": "amount",
          "type": "uint256"
        }
      ],
      "name": "deposit",
      "outputs": [],
      "stateMutability": "nonpayable",
      "type": "function"
    },
    {
      "inputs": [
        {
          "internalType": "address",
          "name": "user",
          "type": "address"
        },
        {
          "internalType": "uint256",
          "name": "amount",
          "type": "uint256"
        }
      ],
      "name": "withdraw",
      "outputs": [],
      "stateMutability": "nonpayable",
      "type": "function"
    },
    {
      "inputs": [
        {
          "internalType": "address",
          "name": "currencyKey",
          "type": "address"
        },
        {
          "internalType": "bool",
          "name": "buyOrSell",
          "type": "bool"
        },
        {
          "internalType": "uint256",
          "name": "numberOfTokens",
          "type": "uint256"
        }
      ],
      "name": "placeOrder",
      "outputs": [],
      "stateMutability": "nonpayable",
      "type": "function"
    },
    {
      "inputs": [
        {
          "internalType": "address",
          "name": "farmAddress",
          "type": "address"
        }
      ],
      "name": "setFarmAddress",
      "outputs": [],
      "stateMutability": "nonpayable",
      "type": "function"
    }
  ],
  "bytecode": "0x60806040523480156200001157600080fd5b506040516200471938038062004719833981810160405260808110156200003757600080fd5b81019080805160405193929190846401000000008211156200005857600080fd5b838201915060208201858111156200006f57600080fd5b82518660018202830111640100000000821117156200008d57600080fd5b8083526020830192505050908051906020019080838360005b83811015620000c3578082015181840152602081019050620000a6565b50505050905090810190601f168015620000f15780820380516001836020036101000a031916815260200191505b50604052602001805190602001909291908051906020019092919080519060200190929190505050836001908051906020019062000131929190620001c4565b5081600360006101000a81548173ffffffffffffffffffffffffffffffffffffffff021916908373ffffffffffffffffffffffffffffffffffffffff16021790555082600481905550806000806101000a81548173ffffffffffffffffffffffffffffffffffffffff021916908373ffffffffffffffffffffffffffffffffffffffff160217905550505050506200026a565b828054600181600116156101000203166002900490600052602060002090601f016020900481019282601f106200020757805160ff191683800117855562000238565b8280016001018555821562000238579182015b82811115620002375782518255916020019190600101906200021a565b5b5090506200024791906200024b565b5090565b5b80821115620002665760008160009055506001016200024c565b5090565b61449f806200027a6000396000f3fe608060405234801561001057600080fd5b50600436106101da5760003560e01c8063981f3b8e11610104578063cca3e832116100a2578063f0329f6b11610071578063f0329f6b146109b3578063f0f3da5e146109e7578063f296255914610a1b578063f3fef3a314610a75576101da565b8063cca3e8321461081c578063d28d885214610874578063d9799809146108f7578063dd62ed3e1461093b576101da565b8063abd70aa2116100de578063abd70aa2146106fe578063ac08c5741461071c578063ae3eb304146107ca578063c162d7da146107e8576101da565b8063981f3b8e1461060e5780639d2d665814610642578063a9059cbb1461069a576101da565b8063313ce5671161017c5780636e1d9d2d1161014b5780636e1d9d2d146104e157806370a082311461051557806380e282931461056d57806395d89b411461058b576101da565b8063313ce567146104365780633eaaf86b1461045757806347e7ef24146104755780635195bd29146104c3576101da565b80632322e3b9116101b85780632322e3b9146102e4578063235c36031461033c57806323b872dd1461035a5780632ed8e0d4146103de576101da565b806306fdde03146101df578063095ea7b31461026257806318160ddd146102c6575b600080fd5b6101e7610ac3565b6040518080602001828103825283818151815260200191508051906020019080838360005b8381101561022757808201518184015260208101905061020c565b50505050905090810190601f1680156102545780820380516001836020036101000a031916815260200191505b509250505060405180910390f35b6102ae6004803603604081101561027857600080fd5b81019080803573ffffffffffffffffffffffffffffffffffffffff16906020019092919080359060200190929190505050610b65565b60405180821515815260200191505060405180910390f35b6102ce610b7c565b6040518082815260200191505060405180910390f35b610326600480360360208110156102fa57600080fd5b81019080803573ffffffffffffffffffffffffffffffffffffffff169060200190929190505050610b86565b6040518082815260200191505060405180910390f35b610344610ca4565b6040518082815260200191505060405180910390f35b6103c66004803603606081101561037057600080fd5b81019080803573ffffffffffffffffffffffffffffffffffffffff169060200190929190803573ffffffffffffffffffffffffffffffffffffffff16906020019092919080359060200190929190505050610cae565b60405180821515815260200191505060405180910390f35b61040a600480360360208110156103f457600080fd5b8101908080359060200190929190505050610e5a565b604051808273ffffffffffffffffffffffffffffffffffffffff16815260200191505060405180910390f35b61043e610e96565b604051808260ff16815260200191505060405180910390f35b61045f610e9f565b6040518082815260200191505060405180910390f35b6104c16004803603604081101561048b57600080fd5b81019080803573ffffffffffffffffffffffffffffffffffffffff16906020019092919080359060200190929190505050610ea5565b005b6104cb611605565b6040518082815260200191505060405180910390f35b6104e9611815565b604051808273ffffffffffffffffffffffffffffffffffffffff16815260200191505060405180910390f35b6105576004803603602081101561052b57600080fd5b81019080803573ffffffffffffffffffffffffffffffffffffffff16906020019092919050505061183f565b6040518082815260200191505060405180910390f35b61057561192a565b6040518082815260200191505060405180910390f35b610593611930565b6040518080602001828103825283818151815260200191508051906020019080838360005b838110156105d35780820151818401526020810190506105b8565b50505050905090810190601f1680156106005780820380516001836020036101000a031916815260200191505b509250505060405180910390f35b610616611947565b604051808273ffffffffffffffffffffffffffffffffffffffff16815260200191505060405180910390f35b6106846004803603602081101561065857600080fd5b81019080803573ffffffffffffffffffffffffffffffffffffffff16906020019092919050505061196b565b6040518082815260200191505060405180910390f35b6106e6600480360360408110156106b057600080fd5b81019080803573ffffffffffffffffffffffffffffffffffffffff16906020019092919080359060200190929190505050611983565b60405180821515815260200191505060405180910390f35b61070661199a565b6040518082815260200191505060405180910390f35b6107246119b0565b604051808060200180602001848152602001838103835286818151815260200191508051906020019060200280838360005b83811015610771578082015181840152602081019050610756565b50505050905001838103825285818151815260200191508051906020019060200280838360005b838110156107b3578082015181840152602081019050610798565b505050509050019550505050505060405180910390f35b6107d2611ecc565b6040518082815260200191505060405180910390f35b6107f0611ed2565b604051808273ffffffffffffffffffffffffffffffffffffffff16815260200191505060405180910390f35b61085e6004803603602081101561083257600080fd5b81019080803573ffffffffffffffffffffffffffffffffffffffff169060200190929190505050611efc565b6040518082815260200191505060405180910390f35b61087c611f14565b6040518080602001828103825283818151815260200191508051906020019080838360005b838110156108bc5780820151818401526020810190506108a1565b50505050905090810190601f1680156108e95780820380516001836020036101000a031916815260200191505b509250505060405180910390f35b6109396004803603602081101561090d57600080fd5b81019080803573ffffffffffffffffffffffffffffffffffffffff169060200190929190505050611fb2565b005b61099d6004803603604081101561095157600080fd5b81019080803573ffffffffffffffffffffffffffffffffffffffff169060200190929190803573ffffffffffffffffffffffffffffffffffffffff169060200190929190505050612200565b6040518082815260200191505060405180910390f35b6109bb612225565b604051808273ffffffffffffffffffffffffffffffffffffffff16815260200191505060405180910390f35b6109ef61224b565b604051808273ffffffffffffffffffffffffffffffffffffffff16815260200191505060405180910390f35b610a7360048036036060811015610a3157600080fd5b81019080803573ffffffffffffffffffffffffffffffffffffffff16906020019092919080351515906020019092919080359060200190929190505050612271565b005b610ac160048036036040811015610a8b57600080fd5b81019080803573ffffffffffffffffffffffffffffffffffffffff169060200190929190803590602001909291905050506131ee565b005b606060018054600181600116156101000203166002900480601f016020809104026020016040519081016040528092919081815260200182805460018160011615610100020316600290048015610b5b5780601f10610b3057610100808354040283529160200191610b5b565b820191906000526020600020905b815481529060010190602001808311610b3e57829003601f168201915b5050505050905090565b6000610b72338484613b12565b6001905092915050565b6000600254905090565b60008073ffffffffffffffffffffffffffffffffffffffff168273ffffffffffffffffffffffffffffffffffffffff161415610c2a576040517f08c379a000000000000000000000000000000000000000000000000000000000815260040180806020018281038252600f8152602001807f496e76616c69642061646472657373000000000000000000000000000000000081525060200191505060405180910390fd5b6000610c3461199a565b9050610c9c600254610c8e600760008773ffffffffffffffffffffffffffffffffffffffff1673ffffffffffffffffffffffffffffffffffffffff1681526020019081526020016000205484613bfd90919063ffffffff16565b613c3490919063ffffffff16565b915050919050565b6000600454905090565b600080600960008673ffffffffffffffffffffffffffffffffffffffff1673ffffffffffffffffffffffffffffffffffffffff16815260200190815260200160002060003373ffffffffffffffffffffffffffffffffffffffff1673ffffffffffffffffffffffffffffffffffffffff168152602001908152602001600020541115610e4457610dc382600960008773ffffffffffffffffffffffffffffffffffffffff1673ffffffffffffffffffffffffffffffffffffffff16815260200190815260200160002060003373ffffffffffffffffffffffffffffffffffffffff1673ffffffffffffffffffffffffffffffffffffffff16815260200190815260200160002054613c4d90919063ffffffff16565b600960008673ffffffffffffffffffffffffffffffffffffffff1673ffffffffffffffffffffffffffffffffffffffff16815260200190815260200160002060003373ffffffffffffffffffffffffffffffffffffffff1673ffffffffffffffffffffffffffffffffffffffff168152602001908152602001600020819055505b610e4f848484613c64565b600190509392505050565b600a8181548110610e6757fe5b906000526020600020016000915054906101000a900473ffffffffffffffffffffffffffffffffffffffff1681565b60006012905090565b60025481565b60008060009054906101000a900473ffffffffffffffffffffffffffffffffffffffff1673ffffffffffffffffffffffffffffffffffffffff166304433bbc6040518163ffffffff1660e01b81526004018080602001828103825260098152602001807f506f6f6c50726f7879000000000000000000000000000000000000000000000081525060200191505060206040518083038186803b158015610f4a57600080fd5b505afa158015610f5e573d6000803e3d6000fd5b505050506040513d6020811015610f7457600080fd5b810190808051906020019092919050505090508073ffffffffffffffffffffffffffffffffffffffff163373ffffffffffffffffffffffffffffffffffffffff161461100b576040517f08c379a00000000000000000000000000000000000000000000000000000000081526004018080602001828103825260348152602001806143c16034913960400191505060405180910390fd5b600073ffffffffffffffffffffffffffffffffffffffff168373ffffffffffffffffffffffffffffffffffffffff1614156110ae576040517f08c379a00000000000000000000000000000000000000000000000000000000081526004018080602001828103825260148152602001807f496e76616c69642075736572206164647265737300000000000000000000000081525060200191505060405180910390fd5b60008211611124576040517f08c379a000000000000000000000000000000000000000000000000000000000815260040180806020018281038252601e8152602001807f4465706f736974206d7573742062652067726561746572207468616e2030000081525060200191505060405180910390fd5b600061112e61199a565b9050600080600254116111415783611169565b6111688261115a86600254613bfd90919063ffffffff16565b613c3490919063ffffffff16565b5b90506111bd84600860008873ffffffffffffffffffffffffffffffffffffffff1673ffffffffffffffffffffffffffffffffffffffff16815260200190815260200160002054613df890919063ffffffff16565b600860008773ffffffffffffffffffffffffffffffffffffffff1673ffffffffffffffffffffffffffffffffffffffff1681526020019081526020016000208190555061121584600654613df890919063ffffffff16565b60068190555061126d81600760008873ffffffffffffffffffffffffffffffffffffffff1673ffffffffffffffffffffffffffffffffffffffff16815260200190815260200160002054613df890919063ffffffff16565b600760008773ffffffffffffffffffffffffffffffffffffffff1673ffffffffffffffffffffffffffffffffffffffff168152602001908152602001600020819055506112c581600254613df890919063ffffffff16565b60028190555060008060009054906101000a900473ffffffffffffffffffffffffffffffffffffffff1673ffffffffffffffffffffffffffffffffffffffff166304433bbc6040518163ffffffff1660e01b81526004018080602001828103825260088152602001807f53657474696e677300000000000000000000000000000000000000000000000081525060200191505060206040518083038186803b15801561137057600080fd5b505afa158015611384573d6000803e3d6000fd5b505050506040513d602081101561139a57600080fd5b8101908080519060200190929190505050905060008173ffffffffffffffffffffffffffffffffffffffff1663be781b1c6040518163ffffffff1660e01b815260040160206040518083038186803b1580156113f557600080fd5b505afa158015611409573d6000803e3d6000fd5b505050506040513d602081101561141f57600080fd5b810190808051906020019092919050505090508073ffffffffffffffffffffffffffffffffffffffff166323b872dd3330896040518463ffffffff1660e01b8152600401808473ffffffffffffffffffffffffffffffffffffffff1681526020018373ffffffffffffffffffffffffffffffffffffffff1681526020018281526020019350505050602060405180830381600087803b1580156114c157600080fd5b505af11580156114d5573d6000803e3d6000fd5b505050506040513d60208110156114eb57600080fd5b81019080805190602001909291905050505060005b600a8054905081101561158a578173ffffffffffffffffffffffffffffffffffffffff16600a828154811061153157fe5b9060005260206000200160009054906101000a900473ffffffffffffffffffffffffffffffffffffffff1673ffffffffffffffffffffffffffffffffffffffff16141561157d5761158a565b8080600101915050611500565b600a805490508114156115fb57600a829080600181540180825580915050600190039060005260206000200160009091909190916101000a81548173ffffffffffffffffffffffffffffffffffffffff021916908373ffffffffffffffffffffffffffffffffffffffff1602179055505b5050505050505050565b60008060008054906101000a900473ffffffffffffffffffffffffffffffffffffffff1673ffffffffffffffffffffffffffffffffffffffff166304433bbc6040518163ffffffff1660e01b81526004018080602001828103825260088152602001807f53657474696e677300000000000000000000000000000000000000000000000081525060200191505060206040518083038186803b1580156116aa57600080fd5b505afa1580156116be573d6000803e3d6000fd5b505050506040513d60208110156116d457600080fd5b8101908080519060200190929190505050905060008173ffffffffffffffffffffffffffffffffffffffff1663be781b1c6040518163ffffffff1660e01b815260040160206040518083038186803b15801561172f57600080fd5b505afa158015611743573d6000803e3d6000fd5b505050506040513d602081101561175957600080fd5b810190808051906020019092919050505090508073ffffffffffffffffffffffffffffffffffffffff166370a08231306040518263ffffffff1660e01b8152600401808273ffffffffffffffffffffffffffffffffffffffff16815260200191505060206040518083038186803b1580156117d357600080fd5b505afa1580156117e7573d6000803e3d6000fd5b505050506040513d60208110156117fd57600080fd5b81019080805190602001909291905050509250505090565b6000600560009054906101000a900473ffffffffffffffffffffffffffffffffffffffff16905090565b60008073ffffffffffffffffffffffffffffffffffffffff168273ffffffffffffffffffffffffffffffffffffffff1614156118e3576040517f08c379a00000000000000000000000000000000000000000000000000000000081526004018080602001828103825260148152602001807f496e76616c69642075736572206164647265737300000000000000000000000081525060200191505060405180910390fd5b600760008373ffffffffffffffffffffffffffffffffffffffff1673ffffffffffffffffffffffffffffffffffffffff168152602001908152602001600020549050919050565b60045481565b606060405180602001604052806000815250905090565b60008054906101000a900473ffffffffffffffffffffffffffffffffffffffff1681565b60086020528060005260406000206000915090505481565b6000611990338484613c64565b6001905092915050565b6000806119a56119b0565b925050508091505090565b60608060008060008054906101000a900473ffffffffffffffffffffffffffffffffffffffff1673ffffffffffffffffffffffffffffffffffffffff166304433bbc6040518163ffffffff1660e01b81526004018080602001828103825260128152602001807f426173655562657377617041646170746572000000000000000000000000000081525060200191505060206040518083038186803b158015611a5857600080fd5b505afa158015611a6c573d6000803e3d6000fd5b505050506040513d6020811015611a8257600080fd5b810190808051906020019092919050505090506060600a8054905067ffffffffffffffff81118015611ab357600080fd5b50604051908082528060200260200182016040528015611ae25781602001602082028036833780820191505090505b5090506060600a8054905067ffffffffffffffff81118015611b0357600080fd5b50604051908082528060200260200182016040528015611b325781602001602082028036833780820191505090505b509050600080600090505b600a80549050811015611eb957600a8181548110611b5757fe5b9060005260206000200160009054906101000a900473ffffffffffffffffffffffffffffffffffffffff1673ffffffffffffffffffffffffffffffffffffffff166370a08231306040518263ffffffff1660e01b8152600401808273ffffffffffffffffffffffffffffffffffffffff16815260200191505060206040518083038186803b158015611be857600080fd5b505afa158015611bfc573d6000803e3d6000fd5b505050506040513d6020811015611c1257600080fd5b8101908080519060200190929190505050838281518110611c2f57fe5b602002602001018181525050600a8181548110611c4857fe5b9060005260206000200160009054906101000a900473ffffffffffffffffffffffffffffffffffffffff16848281518110611c7f57fe5b602002602001019073ffffffffffffffffffffffffffffffffffffffff16908173ffffffffffffffffffffffffffffffffffffffff16815250506000600a8281548110611cc857fe5b9060005260206000200160009054906101000a900473ffffffffffffffffffffffffffffffffffffffff1673ffffffffffffffffffffffffffffffffffffffff1663313ce5676040518163ffffffff1660e01b815260040160206040518083038186803b158015611d3857600080fd5b505afa158015611d4c573d6000803e3d6000fd5b505050506040513d6020811015611d6257600080fd5b810190808051906020019092919050505060ff16905060008673ffffffffffffffffffffffffffffffffffffffff166341976e09600a8581548110611da357fe5b9060005260206000200160009054906101000a900473ffffffffffffffffffffffffffffffffffffffff166040518263ffffffff1660e01b8152600401808273ffffffffffffffffffffffffffffffffffffffff16815260200191505060206040518083038186803b158015611e1857600080fd5b505afa158015611e2c573d6000803e3d6000fd5b505050506040513d6020811015611e4257600080fd5b810190808051906020019092919050505090506000611e9283600a0a611e8484898881518110611e6e57fe5b6020026020010151613bfd90919063ffffffff16565b613c3490919063ffffffff16565b9050611ea78186613df890919063ffffffff16565b94505050508080600101915050611b3d565b5082828296509650965050505050909192565b60065481565b6000600360009054906101000a900473ffffffffffffffffffffffffffffffffffffffff16905090565b60076020528060005260406000206000915090505481565b60018054600181600116156101000203166002900480601f016020809104026020016040519081016040528092919081815260200182805460018160011615610100020316600290048015611faa5780601f10611f7f57610100808354040283529160200191611faa565b820191906000526020600020905b815481529060010190602001808311611f8d57829003601f168201915b505050505081565b60008060009054906101000a900473ffffffffffffffffffffffffffffffffffffffff1673ffffffffffffffffffffffffffffffffffffffff166304433bbc6040518163ffffffff1660e01b81526004018080602001828103825260098152602001807f506f6f6c50726f7879000000000000000000000000000000000000000000000081525060200191505060206040518083038186803b15801561205757600080fd5b505afa15801561206b573d6000803e3d6000fd5b505050506040513d602081101561208157600080fd5b810190808051906020019092919050505090508073ffffffffffffffffffffffffffffffffffffffff163373ffffffffffffffffffffffffffffffffffffffff1614612118576040517f08c379a00000000000000000000000000000000000000000000000000000000081526004018080602001828103825260348152602001806143c16034913960400191505060405180910390fd5b600073ffffffffffffffffffffffffffffffffffffffff168273ffffffffffffffffffffffffffffffffffffffff1614156121bb576040517f08c379a00000000000000000000000000000000000000000000000000000000081526004018080602001828103825260148152602001807f496e76616c6964206661726d206164647265737300000000000000000000000081525060200191505060405180910390fd5b81600560006101000a81548173ffffffffffffffffffffffffffffffffffffffff021916908373ffffffffffffffffffffffffffffffffffffffff1602179055505050565b6009602052816000526040600020602052806000526040600020600091509150505481565b600360009054906101000a900473ffffffffffffffffffffffffffffffffffffffff1681565b600560009054906101000a900473ffffffffffffffffffffffffffffffffffffffff1681565b60008060009054906101000a900473ffffffffffffffffffffffffffffffffffffffff1673ffffffffffffffffffffffffffffffffffffffff166304433bbc6040518163ffffffff1660e01b81526004018080602001828103825260098152602001807f506f6f6c50726f7879000000000000000000000000000000000000000000000081525060200191505060206040518083038186803b15801561231657600080fd5b505afa15801561232a573d6000803e3d6000fd5b505050506040513d602081101561234057600080fd5b810190808051906020019092919050505090508073ffffffffffffffffffffffffffffffffffffffff163373ffffffffffffffffffffffffffffffffffffffff16146123d7576040517f08c379a00000000000000000000000000000000000000000000000000000000081526004018080602001828103825260348152602001806143c16034913960400191505060405180910390fd5b60008060009054906101000a900473ffffffffffffffffffffffffffffffffffffffff1673ffffffffffffffffffffffffffffffffffffffff166304433bbc6040518163ffffffff1660e01b81526004018080602001828103825260088152602001807f53657474696e677300000000000000000000000000000000000000000000000081525060200191505060206040518083038186803b15801561247c57600080fd5b505afa158015612490573d6000803e3d6000fd5b505050506040513d60208110156124a657600080fd5b8101908080519060200190929190505050905060008060009054906101000a900473ffffffffffffffffffffffffffffffffffffffff1673ffffffffffffffffffffffffffffffffffffffff166304433bbc6040518163ffffffff1660e01b81526004018080602001828103825260128152602001807f426173655562657377617041646170746572000000000000000000000000000081525060200191505060206040518083038186803b15801561255e57600080fd5b505afa158015612572573d6000803e3d6000fd5b505050506040513d602081101561258857600080fd5b8101908080519060200190929190505050905060008273ffffffffffffffffffffffffffffffffffffffff1663be781b1c6040518163ffffffff1660e01b815260040160206040518083038186803b1580156125e357600080fd5b505afa1580156125f7573d6000803e3d6000fd5b505050506040513d602081101561260d57600080fd5b8101908080519060200190929190505050905060008511612679576040517f08c379a000000000000000000000000000000000000000000000000000000000815260040180806020018281038252602d81526020018061443d602d913960400191505060405180910390fd5b600073ffffffffffffffffffffffffffffffffffffffff168773ffffffffffffffffffffffffffffffffffffffff16141561271c576040517f08c379a00000000000000000000000000000000000000000000000000000000081526004018080602001828103825260148152602001807f496e76616c69642063757272656e6379206b657900000000000000000000000081525060200191505060405180910390fd5b8273ffffffffffffffffffffffffffffffffffffffff1663571a0885886040518263ffffffff1660e01b8152600401808273ffffffffffffffffffffffffffffffffffffffff16815260200191505060206040518083038186803b15801561278357600080fd5b505afa158015612797573d6000803e3d6000fd5b505050506040513d60208110156127ad57600080fd5b8101908080519060200190929190505050612830576040517f08c379a000000000000000000000000000000000000000000000000000000000815260040180806020018281038252601d8152602001807f43757272656e6379206b6579206973206e6f7420617661696c61626c6500000081525060200191505060405180910390fd5b60008773ffffffffffffffffffffffffffffffffffffffff1663313ce5676040518163ffffffff1660e01b815260040160206040518083038186803b15801561287857600080fd5b505afa15801561288c573d6000803e3d6000fd5b505050506040513d60208110156128a257600080fd5b810190808051906020019092919050505060ff16905060008373ffffffffffffffffffffffffffffffffffffffff166341976e098a6040518263ffffffff1660e01b8152600401808273ffffffffffffffffffffffffffffffffffffffff16815260200191505060206040518083038186803b15801561292157600080fd5b505afa158015612935573d6000803e3d6000fd5b505050506040513d602081101561294b57600080fd5b8101908080519060200190929190505050905060008061298984600a0a61297b858c613bfd90919063ffffffff16565b613c3490919063ffffffff16565b90508915612cce578061299a611605565b1015612a0e576040517f08c379a00000000000000000000000000000000000000000000000000000000081526004018080602001828103825260108152602001807f4e6f7420656e6f7567682066756e64730000000000000000000000000000000081525060200191505060405180910390fd5b60008b73ffffffffffffffffffffffffffffffffffffffff166370a08231306040518263ffffffff1660e01b8152600401808273ffffffffffffffffffffffffffffffffffffffff16815260200191505060206040518083038186803b158015612a7757600080fd5b505afa158015612a8b573d6000803e3d6000fd5b505050506040513d6020811015612aa157600080fd5b81019080805190602001909291905050501415612b1c57600a8b9080600181540180825580915050600190039060005260206000200160009091909190916101000a81548173ffffffffffffffffffffffffffffffffffffffff021916908373ffffffffffffffffffffffffffffffffffffffff1602179055505b8473ffffffffffffffffffffffffffffffffffffffff1663a9059cbb87836040518363ffffffff1660e01b8152600401808373ffffffffffffffffffffffffffffffffffffffff16815260200182815260200192505050602060405180830381600087803b158015612b8d57600080fd5b505af1158015612ba1573d6000803e3d6000fd5b505050506040513d6020811015612bb757600080fd5b8101908080519060200190929190505050506000612bf26064612be4605f8d613bfd90919063ffffffff16565b613c3490919063ffffffff16565b90508673ffffffffffffffffffffffffffffffffffffffff1663e5414cd0878e85856040518563ffffffff1660e01b8152600401808573ffffffffffffffffffffffffffffffffffffffff1681526020018473ffffffffffffffffffffffffffffffffffffffff168152602001838152602001828152602001945050505050602060405180830381600087803b158015612c8b57600080fd5b505af1158015612c9f573d6000803e3d6000fd5b505050506040513d6020811015612cb557600080fd5b81019080805190602001909291905050509250506131e1565b60005b600a80549050811015612d5b57600a8181548110612ceb57fe5b9060005260206000200160009054906101000a900473ffffffffffffffffffffffffffffffffffffffff1673ffffffffffffffffffffffffffffffffffffffff168c73ffffffffffffffffffffffffffffffffffffffff161415612d4e57612d5b565b8080600101915050612cd1565b600a805490508110612db8576040517f08c379a00000000000000000000000000000000000000000000000000000000081526004018080602001828103825260268152602001806144176026913960400191505060405180910390fd5b898c73ffffffffffffffffffffffffffffffffffffffff166370a08231306040518263ffffffff1660e01b8152600401808273ffffffffffffffffffffffffffffffffffffffff16815260200191505060206040518083038186803b158015612e2057600080fd5b505afa158015612e34573d6000803e3d6000fd5b505050506040513d6020811015612e4a57600080fd5b81019080805190602001909291905050501015612eb2576040517f08c379a00000000000000000000000000000000000000000000000000000000081526004018080602001828103825260228152602001806143f56022913960400191505060405180910390fd5b8b73ffffffffffffffffffffffffffffffffffffffff1663a9059cbb888c6040518363ffffffff1660e01b8152600401808373ffffffffffffffffffffffffffffffffffffffff16815260200182815260200192505050602060405180830381600087803b158015612f2357600080fd5b505af1158015612f37573d6000803e3d6000fd5b505050506040513d6020811015612f4d57600080fd5b8101908080519060200190929190505050506000612f886064612f7a605f86613bfd90919063ffffffff16565b613c3490919063ffffffff16565b90508773ffffffffffffffffffffffffffffffffffffffff1663e5414cd08e898e856040518563ffffffff1660e01b8152600401808573ffffffffffffffffffffffffffffffffffffffff1681526020018473ffffffffffffffffffffffffffffffffffffffff168152602001838152602001828152602001945050505050602060405180830381600087803b15801561302157600080fd5b505af1158015613035573d6000803e3d6000fd5b505050506040513d602081101561304b57600080fd5b8101908080519060200190929190505050935060008d73ffffffffffffffffffffffffffffffffffffffff166370a08231306040518263ffffffff1660e01b8152600401808273ffffffffffffffffffffffffffffffffffffffff16815260200191505060206040518083038186803b1580156130c757600080fd5b505afa1580156130db573d6000803e3d6000fd5b505050506040513d60208110156130f157600080fd5b810190808051906020019092919050505014156131de57600a6001600a80549050038154811061311d57fe5b9060005260206000200160009054906101000a900473ffffffffffffffffffffffffffffffffffffffff16600a838154811061315557fe5b9060005260206000200160006101000a81548173ffffffffffffffffffffffffffffffffffffffff021916908373ffffffffffffffffffffffffffffffffffffffff160217905550600a8054806131a857fe5b6001900381819060005260206000200160006101000a81549073ffffffffffffffffffffffffffffffffffffffff021916905590555b50505b5050505050505050505050565b60008060009054906101000a900473ffffffffffffffffffffffffffffffffffffffff1673ffffffffffffffffffffffffffffffffffffffff166304433bbc6040518163ffffffff1660e01b81526004018080602001828103825260098152602001807f506f6f6c50726f7879000000000000000000000000000000000000000000000081525060200191505060206040518083038186803b15801561329357600080fd5b505afa1580156132a7573d6000803e3d6000fd5b505050506040513d60208110156132bd57600080fd5b810190808051906020019092919050505090508073ffffffffffffffffffffffffffffffffffffffff163373ffffffffffffffffffffffffffffffffffffffff1614613354576040517f08c379a00000000000000000000000000000000000000000000000000000000081526004018080602001828103825260348152602001806143c16034913960400191505060405180910390fd5b600073ffffffffffffffffffffffffffffffffffffffff168373ffffffffffffffffffffffffffffffffffffffff1614156133f7576040517f08c379a00000000000000000000000000000000000000000000000000000000081526004018080602001828103825260148152602001807f496e76616c69642075736572206164647265737300000000000000000000000081525060200191505060405180910390fd5b60008211613450576040517f08c379a00000000000000000000000000000000000000000000000000000000081526004018080602001828103825260218152602001806143a06021913960400191505060405180910390fd5b600061345a61199a565b905060006134c46002546134b6600760008973ffffffffffffffffffffffffffffffffffffffff1673ffffffffffffffffffffffffffffffffffffffff1681526020019081526020016000205485613bfd90919063ffffffff16565b613c3490919063ffffffff16565b90508381101561353c576040517f08c379a000000000000000000000000000000000000000000000000000000000815260040180806020018281038252601c8152602001807f4e6f7420656e6f7567682066756e647320746f2077697468647261770000000081525060200191505060405180910390fd5b6000600860008773ffffffffffffffffffffffffffffffffffffffff1673ffffffffffffffffffffffffffffffffffffffff16815260200190815260200160002054821161358b5760006135de565b6135dd600860008873ffffffffffffffffffffffffffffffffffffffff1673ffffffffffffffffffffffffffffffffffffffff1681526020019081526020016000205483613c4d90919063ffffffff16565b5b9050613605826135f78784613bfd90919063ffffffff16565b613c3490919063ffffffff16565b905061362f606461362160045484613bfd90919063ffffffff16565b613c3490919063ffffffff16565b905060008111156136445761364381613e14565b5b60006136aa8361369c88600860008c73ffffffffffffffffffffffffffffffffffffffff1673ffffffffffffffffffffffffffffffffffffffff16815260200190815260200160002054613bfd90919063ffffffff16565b613c3490919063ffffffff16565b905060006137128461370489600760008d73ffffffffffffffffffffffffffffffffffffffff1673ffffffffffffffffffffffffffffffffffffffff16815260200190815260200160002054613bfd90919063ffffffff16565b613c3490919063ffffffff16565b905061376681600760008b73ffffffffffffffffffffffffffffffffffffffff1673ffffffffffffffffffffffffffffffffffffffff16815260200190815260200160002054613c4d90919063ffffffff16565b600760008a73ffffffffffffffffffffffffffffffffffffffff1673ffffffffffffffffffffffffffffffffffffffff168152602001908152602001600020819055506137be81600254613c4d90919063ffffffff16565b60028190555061381682600860008b73ffffffffffffffffffffffffffffffffffffffff1673ffffffffffffffffffffffffffffffffffffffff16815260200190815260200160002054613c4d90919063ffffffff16565b600860008a73ffffffffffffffffffffffffffffffffffffffff1673ffffffffffffffffffffffffffffffffffffffff1681526020019081526020016000208190555061386e82600654613c4d90919063ffffffff16565b60068190555060005b600a80549050811015613a8f576000600a828154811061389357fe5b9060005260206000200160009054906101000a900473ffffffffffffffffffffffffffffffffffffffff1673ffffffffffffffffffffffffffffffffffffffff166370a08231306040518263ffffffff1660e01b8152600401808273ffffffffffffffffffffffffffffffffffffffff16815260200191505060206040518083038186803b15801561392457600080fd5b505afa158015613938573d6000803e3d6000fd5b505050506040513d602081101561394e57600080fd5b81019080805190602001909291905050509050600061399a8861398c61397d898e613c4d90919063ffffffff16565b85613bfd90919063ffffffff16565b613c3490919063ffffffff16565b9050600a83815481106139a957fe5b9060005260206000200160009054906101000a900473ffffffffffffffffffffffffffffffffffffffff1673ffffffffffffffffffffffffffffffffffffffff1663a9059cbb8c836040518363ffffffff1660e01b8152600401808373ffffffffffffffffffffffffffffffffffffffff16815260200182815260200192505050602060405180830381600087803b158015613a4457600080fd5b505af1158015613a58573d6000803e3d6000fd5b505050506040513d6020811015613a6e57600080fd5b81019080805190602001909291905050505050508080600101915050613877565b5060006002541415613b0857600a6000613aa9919061429c565b600067ffffffffffffffff81118015613ac157600080fd5b50604051908082528060200260200182016040528015613af05781602001602082028036833780820191505090505b50600a9080519060200190613b069291906142bd565b505b5050505050505050565b80600960008573ffffffffffffffffffffffffffffffffffffffff1673ffffffffffffffffffffffffffffffffffffffff16815260200190815260200160002060008473ffffffffffffffffffffffffffffffffffffffff1673ffffffffffffffffffffffffffffffffffffffff168152602001908152602001600020819055508173ffffffffffffffffffffffffffffffffffffffff168373ffffffffffffffffffffffffffffffffffffffff167f8c5be1e5ebec7d5bd14f71427d1e84f3dd0314c0f7b2291e5b200ac8c7c3b925836040518082815260200191505060405180910390a3505050565b600080831415613c105760009050613c2e565b6000828402905082848281613c2157fe5b0414613c2957fe5b809150505b92915050565b600080828481613c4057fe5b0490508091505092915050565b600082821115613c5957fe5b818303905092915050565b613cb681600760008673ffffffffffffffffffffffffffffffffffffffff1673ffffffffffffffffffffffffffffffffffffffff16815260200190815260200160002054613c4d90919063ffffffff16565b600760008573ffffffffffffffffffffffffffffffffffffffff1673ffffffffffffffffffffffffffffffffffffffff16815260200190815260200160002081905550613d4b81600760008573ffffffffffffffffffffffffffffffffffffffff1673ffffffffffffffffffffffffffffffffffffffff16815260200190815260200160002054613df890919063ffffffff16565b600760008473ffffffffffffffffffffffffffffffffffffffff1673ffffffffffffffffffffffffffffffffffffffff168152602001908152602001600020819055508173ffffffffffffffffffffffffffffffffffffffff168373ffffffffffffffffffffffffffffffffffffffff167fddf252ad1be2c89b69c2b068fc378daa952ba7f163c4a11628f55a4df523b3ef836040518082815260200191505060405180910390a3505050565b600080828401905083811015613e0a57fe5b8091505092915050565b6000613e1e61199a565b905060008060009054906101000a900473ffffffffffffffffffffffffffffffffffffffff1673ffffffffffffffffffffffffffffffffffffffff166304433bbc6040518163ffffffff1660e01b81526004018080602001828103825260078152602001807f466565506f6f6c0000000000000000000000000000000000000000000000000081525060200191505060206040518083038186803b158015613ec557600080fd5b505afa158015613ed9573d6000803e3d6000fd5b505050506040513d6020811015613eef57600080fd5b810190808051906020019092919050505090508073ffffffffffffffffffffffffffffffffffffffff16630939b690600a6040518263ffffffff1660e01b815260040180806020018281038252838181548152602001915080548015613faa57602002820191906000526020600020905b8160009054906101000a900473ffffffffffffffffffffffffffffffffffffffff1673ffffffffffffffffffffffffffffffffffffffff1681526020019060010190808311613f60575b505092505050600060405180830381600087803b158015613fca57600080fd5b505af1158015613fde573d6000803e3d6000fd5b5050505060005b600a805490508110156141eb576000600a828154811061400157fe5b9060005260206000200160009054906101000a900473ffffffffffffffffffffffffffffffffffffffff1673ffffffffffffffffffffffffffffffffffffffff166370a08231306040518263ffffffff1660e01b8152600401808273ffffffffffffffffffffffffffffffffffffffff16815260200191505060206040518083038186803b15801561409257600080fd5b505afa1580156140a6573d6000803e3d6000fd5b505050506040513d60208110156140bc57600080fd5b8101908080519060200190929190505050905060006140f6856140e88885613bfd90919063ffffffff16565b613c3490919063ffffffff16565b9050600a838154811061410557fe5b9060005260206000200160009054906101000a900473ffffffffffffffffffffffffffffffffffffffff1673ffffffffffffffffffffffffffffffffffffffff1663a9059cbb85836040518363ffffffff1660e01b8152600401808373ffffffffffffffffffffffffffffffffffffffff16815260200182815260200192505050602060405180830381600087803b1580156141a057600080fd5b505af11580156141b4573d6000803e3d6000fd5b505050506040513d60208110156141ca57600080fd5b81019080805190602001909291905050505050508080600101915050613fe5565b508073ffffffffffffffffffffffffffffffffffffffff16631dfb9aae600360009054906101000a900473ffffffffffffffffffffffffffffffffffffffff16856040518363ffffffff1660e01b8152600401808373ffffffffffffffffffffffffffffffffffffffff16815260200182815260200192505050600060405180830381600087803b15801561427f57600080fd5b505af1158015614293573d6000803e3d6000fd5b50505050505050565b50805460008255906000526020600020908101906142ba9190614347565b50565b828054828255906000526020600020908101928215614336579160200282015b828111156143355782518260006101000a81548173ffffffffffffffffffffffffffffffffffffffff021916908373ffffffffffffffffffffffffffffffffffffffff160217905550916020019190600101906142dd565b5b5090506143439190614364565b5090565b5b80821115614360576000816000905550600101614348565b5090565b5b8082111561439b57600081816101000a81549073ffffffffffffffffffffffffffffffffffffffff021916905550600101614365565b509056fe5769746864726177616c206d7573742062652067726561746572207468616e2030506f6f6c3a204f6e6c7920506f6f6c50726f787920636f6e74726163742063616e2063616c6c20746869732066756e6374696f6e4e6f7420656e6f75676820746f6b656e7320696e20746869732063757272656e6379446f6e27742068617665206120706f736974696f6e20696e20746869732063757272656e6379506f6f6c3a204e756d626572206f6620746f6b656e73206d7573742062652067726561746572207468616e2030a264697066735822122084b0c8346cbbe685afa067bed6e728be28bccb668d530598758d838eaf341ee664736f6c634300060c0033",
  "immutableReferences": {},
  "source": "pragma solidity >=0.5.0;\r\n\r\n//Adapters\r\nimport './interfaces/IBaseUbeswapAdapter.sol';\r\n\r\n//Interfaces\r\nimport './interfaces/IERC20.sol';\r\nimport './interfaces/IPool.sol';\r\nimport './interfaces/ISettings.sol';\r\nimport './interfaces/IAddressResolver.sol';\r\nimport './interfaces/IFeePool.sol';\r\n\r\n//Libraries\r\nimport './libraries/SafeMath.sol';\r\n\r\ncontract Pool is IPool, IERC20 {\r\n    using SafeMath for uint;\r\n\r\n    IAddressResolver public ADDRESS_RESOLVER;\r\n   \r\n    string public _name;\r\n    uint public _totalSupply;\r\n    address public _manager;\r\n    uint public _performanceFee; //expressed as %\r\n    address public _farmAddress;\r\n    uint public _totalDeposits;\r\n\r\n    mapping (address => uint) public _balanceOf;\r\n    mapping (address => uint) public _deposits;\r\n    mapping(address => mapping(address => uint)) public override allowance;\r\n\r\n    address[] public _positionKeys;\r\n\r\n    constructor(string memory name, uint performanceFee, address manager, IAddressResolver addressResolver) public {\r\n        _name = name;\r\n        _manager = manager;\r\n        _performanceFee = performanceFee;\r\n        ADDRESS_RESOLVER = addressResolver;\r\n    }\r\n\r\n    /* ========== VIEWS ========== */\r\n\r\n    /**\r\n    * @dev Returns the name of the pool\r\n    * @return string The name of the pool\r\n    */\r\n    function name() public view override(IPool, IERC20) returns (string memory) {\r\n        return _name;\r\n    }\r\n\r\n    function symbol() public view override returns (string memory) {\r\n        return \"\";\r\n    }\r\n\r\n    function decimals() public view override returns (uint8) {\r\n        return 18;\r\n    }\r\n\r\n    /**\r\n    * @dev Returns the address of the pool's farm\r\n    * @return address Address of the pool's farm\r\n    */\r\n    function getFarmAddress() public view override returns (address) {\r\n        return _farmAddress;\r\n    }\r\n\r\n    /**\r\n    * @dev Return the pool manager's address\r\n    * @return address Address of the pool's manager\r\n    */\r\n    function getManagerAddress() public view override returns (address) {\r\n        return _manager;\r\n    }\r\n\r\n    /**\r\n    * @dev Returns the currency address and balance of each position the pool has, as well as the cumulative value\r\n    * @return (address[], uint[], uint) Currency address and balance of each position the pool has, and the cumulative value of positions\r\n    */\r\n    function getPositionsAndTotal() public view override returns (address[] memory, uint[] memory, uint) {\r\n        address baseUbeswapAdapterAddress = ADDRESS_RESOLVER.getContractAddress(\"BaseUbeswapAdapter\");\r\n        address[] memory addresses = new address[](_positionKeys.length);\r\n        uint[] memory balances = new uint[](_positionKeys.length);\r\n        uint sum;\r\n\r\n        for (uint i = 0; i < _positionKeys.length; i++)\r\n        {\r\n            balances[i] = IERC20(_positionKeys[i]).balanceOf(address(this));\r\n            addresses[i] = _positionKeys[i];\r\n\r\n            uint numberOfDecimals = IERC20(_positionKeys[i]).decimals();\r\n            uint USDperToken = IBaseUbeswapAdapter(baseUbeswapAdapterAddress).getPrice(_positionKeys[i]);\r\n            uint positionBalanceInUSD = balances[i].mul(USDperToken).div(10 ** numberOfDecimals);\r\n            sum = sum.add(positionBalanceInUSD);\r\n        }\r\n\r\n        return (addresses, balances, sum);\r\n    }\r\n\r\n    /**\r\n    * @dev Returns the amount of cUSD the pool has to invest\r\n    * @return uint Amount of cUSD the pool has available\r\n    */\r\n    function getAvailableFunds() public view override returns (uint) {\r\n        address settingsAddress = ADDRESS_RESOLVER.getContractAddress(\"Settings\");\r\n        address stableCoinAddress = ISettings(settingsAddress).getStableCoinAddress();\r\n\r\n        return IERC20(stableCoinAddress).balanceOf(address(this));\r\n    }\r\n\r\n    /**\r\n    * @dev Returns the value of the pool in USD\r\n    * @return uint Value of the pool in USD\r\n    */\r\n    function getPoolBalance() public view override returns (uint) {\r\n        (,, uint positionBalance) = getPositionsAndTotal();\r\n        \r\n        return positionBalance;\r\n    }\r\n\r\n    /**\r\n    * @dev Returns the balance of the user in USD\r\n    * @return uint Balance of the user in USD\r\n    */\r\n    function getUSDBalance(address user) public view override returns (uint) {\r\n        require(user != address(0), \"Invalid address\");\r\n\r\n        uint poolBalance = getPoolBalance();\r\n\r\n        return poolBalance.mul(_balanceOf[user]).div(_totalSupply);\r\n    }\r\n\r\n    /**\r\n    * @dev Returns the number of LP tokens the user has\r\n    * @param user Address of the user\r\n    * @return uint Number of LP tokens the user has\r\n    */\r\n    function balanceOf(address user) public view override(IPool, IERC20) returns (uint) {\r\n        require(user != address(0), \"Invalid user address\");\r\n\r\n        return _balanceOf[user];\r\n    }\r\n\r\n    /**\r\n    * @dev Returns the total supply of LP tokens in the pool\r\n    * @return uint Total supply of LP tokens\r\n    */\r\n    function totalSupply() public view override returns (uint) {\r\n        return _totalSupply;\r\n    }\r\n\r\n    /**\r\n    * @dev Returns the pool's performance fee\r\n    * @return uint The pool's performance fee\r\n    */\r\n    function getPerformanceFee() public view override returns (uint) {\r\n        return _performanceFee;\r\n    }\r\n\r\n    /* ========== MUTATIVE FUNCTIONS ========== */\r\n\r\n    function approve(address spender, uint value) public override returns (bool) {\r\n        _approve(msg.sender, spender, value);\r\n        return true;\r\n    }\r\n\r\n    function transfer(address to, uint value) public override returns (bool) {\r\n        _transfer(msg.sender, to, value);\r\n        return true;\r\n    }\r\n\r\n    function transferFrom(address from, address to, uint value) public override returns (bool) {\r\n        if (allowance[from][msg.sender] > 0) {\r\n            allowance[from][msg.sender] = allowance[from][msg.sender].sub(value);\r\n        }\r\n        _transfer(from, to, value);\r\n        return true;\r\n    }\r\n\r\n    /* ========== RESTRICTED FUNCTIONS ========== */\r\n\r\n    /**\r\n    * @dev Deposits the given USD amount into the pool\r\n    * @param user Address of the user\r\n    * @param amount Amount of USD to deposit into the pool\r\n    */\r\n    function deposit(address user, uint amount) public override onlyPoolProxy {\r\n        require(user != address(0), \"Invalid user address\");\r\n        require(amount > 0, \"Deposit must be greater than 0\");\r\n\r\n        uint poolBalance = getPoolBalance();\r\n        uint numberOfLPTokens = (_totalSupply > 0) ? _totalSupply.mul(amount).div(poolBalance) : amount;\r\n        _deposits[user] = _deposits[user].add(amount);\r\n        _totalDeposits = _totalDeposits.add(amount);\r\n        _balanceOf[user] = _balanceOf[user].add(numberOfLPTokens);\r\n        _totalSupply = _totalSupply.add(numberOfLPTokens);\r\n\r\n        address settingsAddress = ADDRESS_RESOLVER.getContractAddress(\"Settings\");\r\n        address stableCoinAddress = ISettings(settingsAddress).getStableCoinAddress();\r\n\r\n        IERC20(stableCoinAddress).transferFrom(msg.sender, address(this), amount);\r\n\r\n        //Check for cUSD in position keys \r\n        uint positionIndex;\r\n        for (positionIndex = 0; positionIndex < _positionKeys.length; positionIndex++)\r\n        {\r\n            if (_positionKeys[positionIndex] == stableCoinAddress)\r\n            {\r\n                break;\r\n            }\r\n        }\r\n\r\n        //Add cUSD to position keys if it's not there already\r\n        if (positionIndex == _positionKeys.length)\r\n        {\r\n            _positionKeys.push(stableCoinAddress);\r\n        }\r\n    }\r\n\r\n    /**\r\n    * @dev Withdraws the given USD amount on behalf of the user\r\n    * @notice The withdrawal is done using pool's assets at time of withdrawal. This avoids the exchange fees and slippage from exchanging pool's assets back to cUSD or TGEN.\r\n    * @param user Address of user to withdraw\r\n    * @param amount Amount of USD to withdraw from the pool\r\n    */\r\n    function withdraw(address user, uint amount) public override onlyPoolProxy {\r\n        require(user != address(0), \"Invalid user address\");\r\n        require(amount > 0, \"Withdrawal must be greater than 0\");\r\n\r\n        uint poolBalance = getPoolBalance();\r\n        uint USDBalance = poolBalance.mul(_balanceOf[user]).div(_totalSupply);\r\n\r\n        require(USDBalance >= amount, \"Not enough funds to withdraw\");\r\n\r\n        uint fee = (USDBalance > _deposits[user]) ? USDBalance.sub(_deposits[user]) : 0;\r\n        fee = fee.mul(amount).div(USDBalance); //Multiply by ratio of withdrawal amount to USD balance\r\n        fee = fee.mul(_performanceFee).div(100);\r\n\r\n        //Pay performance fee if user has profit\r\n        if (fee > 0) \r\n        {\r\n            _payPerformanceFee(fee);\r\n        }\r\n\r\n        uint depositAmount = _deposits[user].mul(amount).div(USDBalance);\r\n        uint numberOfLPTokens = _balanceOf[user].mul(amount).div(USDBalance);\r\n        _balanceOf[user] = _balanceOf[user].sub(numberOfLPTokens);\r\n        _totalSupply = _totalSupply.sub(numberOfLPTokens);\r\n        _deposits[user] = _deposits[user].sub(depositAmount);\r\n        _totalDeposits = _totalDeposits.sub(depositAmount);\r\n\r\n        //Withdraw user's portion of pool's assets\r\n        for (uint i = 0; i < _positionKeys.length; i++)\r\n        {\r\n            uint positionBalance = IERC20(_positionKeys[i]).balanceOf(address(this)); //Number of asset's tokens\r\n            uint amountToTransfer = positionBalance.mul(amount.sub(fee)).div(poolBalance); //Multiply by ratio of withdrawal amount after fee to pool's USD balance\r\n\r\n            IERC20(_positionKeys[i]).transfer(user, amountToTransfer);\r\n        }\r\n\r\n        //Remove position keys if pool is liquidated\r\n        if (_totalSupply == 0)\r\n        {\r\n            delete _positionKeys;\r\n            _positionKeys = new address[](0);\r\n        }\r\n    }\r\n\r\n    /**\r\n    * @dev Places an order to buy/sell the given currency\r\n    * @param currencyKey Address of currency to trade\r\n    * @param buyOrSell Whether the user is buying or selling\r\n    * @param numberOfTokens Number of tokens of the given currency\r\n    */\r\n    function placeOrder(address currencyKey, bool buyOrSell, uint numberOfTokens) public override onlyPoolProxy {\r\n        address settingsAddress = ADDRESS_RESOLVER.getContractAddress(\"Settings\");\r\n        address baseUbeswapAdapterAddress = ADDRESS_RESOLVER.getContractAddress(\"BaseUbeswapAdapter\");\r\n        address stableCoinAddress = ISettings(settingsAddress).getStableCoinAddress();\r\n\r\n        require(numberOfTokens > 0, \"Pool: Number of tokens must be greater than 0\");\r\n        require(currencyKey != address(0), \"Invalid currency key\");\r\n        require(ISettings(settingsAddress).checkIfCurrencyIsAvailable(currencyKey), \"Currency key is not available\");\r\n\r\n        uint numberOfDecimals = IERC20(currencyKey).decimals();\r\n        uint tokenToUSD = IBaseUbeswapAdapter(baseUbeswapAdapterAddress).getPrice(currencyKey);\r\n        uint numberOfTokensReceived;\r\n        uint amountInUSD = numberOfTokens.mul(tokenToUSD).div(10 ** numberOfDecimals);\r\n\r\n        //buying\r\n        if (buyOrSell)\r\n        {\r\n            require(getAvailableFunds() >= amountInUSD, \"Not enough funds\");\r\n\r\n            //Add to position keys if no position yet\r\n            if (IERC20(currencyKey).balanceOf(address(this)) == 0)\r\n            {\r\n                _positionKeys.push(currencyKey);\r\n            }\r\n\r\n            IERC20(stableCoinAddress).transfer(baseUbeswapAdapterAddress, amountInUSD);\r\n            uint minAmountOut = numberOfTokens.mul(95).div(100); //max slippage 5%\r\n            numberOfTokensReceived = IBaseUbeswapAdapter(baseUbeswapAdapterAddress).swapFromPool(stableCoinAddress, currencyKey, amountInUSD, minAmountOut);\r\n        }\r\n        //selling\r\n        else\r\n        {\r\n            uint positionIndex;\r\n            for (positionIndex = 0; positionIndex < _positionKeys.length; positionIndex++)\r\n            {\r\n                if (currencyKey == _positionKeys[positionIndex])\r\n                {\r\n                    break;\r\n                }\r\n            }\r\n\r\n            require(positionIndex < _positionKeys.length, \"Don't have a position in this currency\");\r\n            require(IERC20(currencyKey).balanceOf(address(this)) >= numberOfTokens, \"Not enough tokens in this currency\");\r\n\r\n            IERC20(currencyKey).transfer(baseUbeswapAdapterAddress, numberOfTokens);\r\n            uint minAmountOut = amountInUSD.mul(95).div(100); //max slippage 5%\r\n            numberOfTokensReceived = IBaseUbeswapAdapter(baseUbeswapAdapterAddress).swapFromPool(currencyKey, stableCoinAddress, numberOfTokens, minAmountOut);\r\n\r\n            //remove position key if no funds left in currency\r\n            if (IERC20(currencyKey).balanceOf(address(this)) == 0)\r\n            {\r\n                _positionKeys[positionIndex] = _positionKeys[_positionKeys.length - 1];\r\n                _positionKeys.pop();\r\n            }\r\n        }\r\n    }\r\n\r\n    /**\r\n    * @dev Updates the pool's farm address\r\n    * @param farmAddress Address of the pool's farm\r\n    */\r\n    function setFarmAddress(address farmAddress) public override onlyPoolProxy {\r\n        require(farmAddress != address(0), \"Invalid farm address\");\r\n\r\n        _farmAddress = farmAddress;\r\n    }\r\n\r\n    /* ========== INTERNAL FUNCTIONS ========== */\r\n\r\n    /**\r\n    * @dev Pay performance fee on the user's profit when the user withdraws from the pool\r\n    * @notice Performance fee is paid in pool's assets at time of withdrawal\r\n    * @param fee Amount of cUSD to pay as a fee\r\n    */\r\n    function _payPerformanceFee(uint fee) internal {\r\n        uint poolBalance = getPoolBalance();\r\n        address feePoolAddress = ADDRESS_RESOLVER.getContractAddress(\"FeePool\");\r\n\r\n        IFeePool(feePoolAddress).addPositionKeys(_positionKeys);\r\n\r\n        //Withdraw performance fee proportional to pool's assets\r\n        for (uint i = 0; i < _positionKeys.length; i++)\r\n        {\r\n            uint positionBalance = IERC20(_positionKeys[i]).balanceOf(address(this));\r\n            uint amountToTransfer = positionBalance.mul(fee).div(poolBalance);\r\n\r\n            IERC20(_positionKeys[i]).transfer(feePoolAddress, amountToTransfer);\r\n        }\r\n\r\n        IFeePool(feePoolAddress).addFees(_manager, fee);\r\n    }\r\n\r\n    function _approve(address owner, address spender, uint value) private {\r\n        allowance[owner][spender] = value;\r\n        emit Approval(owner, spender, value);\r\n    }\r\n\r\n    function _transfer(address from, address to, uint value) private {\r\n        _balanceOf[from] = _balanceOf[from].sub(value);\r\n        _balanceOf[to] = _balanceOf[to].add(value);\r\n        emit Transfer(from, to, value);\r\n    }\r\n\r\n    /* ========== MODIFIERS ========== */\r\n\r\n    modifier onlyPoolProxy() {\r\n        address poolProxyAddress = ADDRESS_RESOLVER.getContractAddress(\"PoolProxy\");\r\n\r\n        require(msg.sender == poolProxyAddress, \"Pool: Only PoolProxy contract can call this function\");\r\n        _;\r\n    }\r\n}",
  "sourcePath": "C:\\Users\\xavie\\OneDrive\\Desktop\\TradeGen\\Github\\tradegen\\contracts\\Pool.sol",
  "compiler": {
    "name": "solc",
    "version": "0.6.12+commit.27d51765.Emscripten.clang"
  },
  "schemaVersion": "3.4.1",
  "updatedAt": "2021-07-20T02:22:18.282Z",
  "devdoc": {
    "kind": "dev",
    "methods": {
      "balanceOf(address)": {
        "details": "Returns the number of LP tokens the user has",
        "params": {
          "user": "Address of the user"
        },
        "returns": {
          "_0": "uint Number of LP tokens the user has"
        }
      },
      "deposit(address,uint256)": {
        "details": "Deposits the given USD amount into the pool",
        "params": {
          "amount": "Amount of USD to deposit into the pool",
          "user": "Address of the user"
        }
      },
      "getAvailableFunds()": {
        "details": "Returns the amount of cUSD the pool has to invest",
        "returns": {
          "_0": "uint Amount of cUSD the pool has available"
        }
      },
      "getFarmAddress()": {
        "details": "Returns the address of the pool's farm",
        "returns": {
          "_0": "address Address of the pool's farm"
        }
      },
      "getManagerAddress()": {
        "details": "Return the pool manager's address",
        "returns": {
          "_0": "address Address of the pool's manager"
        }
      },
      "getPerformanceFee()": {
        "details": "Returns the pool's performance fee",
        "returns": {
          "_0": "uint The pool's performance fee"
        }
      },
      "getPoolBalance()": {
        "details": "Returns the value of the pool in USD",
        "returns": {
          "_0": "uint Value of the pool in USD"
        }
      },
      "getPositionsAndTotal()": {
        "details": "Returns the currency address and balance of each position the pool has, as well as the cumulative value",
        "returns": {
          "_0": "(address[], uint[], uint) Currency address and balance of each position the pool has, and the cumulative value of positions"
        }
      },
      "getUSDBalance(address)": {
        "details": "Returns the balance of the user in USD",
        "returns": {
          "_0": "uint Balance of the user in USD"
        }
      },
      "name()": {
        "details": "Returns the name of the pool",
        "returns": {
          "_0": "string The name of the pool"
        }
      },
      "placeOrder(address,bool,uint256)": {
        "details": "Places an order to buy/sell the given currency",
        "params": {
          "buyOrSell": "Whether the user is buying or selling",
          "currencyKey": "Address of currency to trade",
          "numberOfTokens": "Number of tokens of the given currency"
        }
      },
      "setFarmAddress(address)": {
        "details": "Updates the pool's farm address",
        "params": {
          "farmAddress": "Address of the pool's farm"
        }
      },
      "totalSupply()": {
        "details": "Returns the total supply of LP tokens in the pool",
        "returns": {
          "_0": "uint Total supply of LP tokens"
        }
      },
      "withdraw(address,uint256)": {
        "details": "Withdraws the given USD amount on behalf of the user",
        "params": {
          "amount": "Amount of USD to withdraw from the pool",
          "user": "Address of user to withdraw"
        }
      }
    },
    "version": 1
  },
  "userdoc": {
    "kind": "user",
    "methods": {
      "withdraw(address,uint256)": {
        "notice": "The withdrawal is done using pool's assets at time of withdrawal. This avoids the exchange fees and slippage from exchanging pool's assets back to cUSD or TGEN."
      }
    },
    "version": 1
  }
}