{
  "contractName": "PoolProxy",
  "abi": [
    {
      "inputs": [
        {
          "internalType": "contract IAddressResolver",
          "name": "addressResolver",
          "type": "address"
        }
      ],
      "stateMutability": "nonpayable",
      "type": "constructor"
    },
    {
      "anonymous": false,
      "inputs": [
        {
          "indexed": true,
          "internalType": "address",
          "name": "managerAddress",
          "type": "address"
        },
        {
          "indexed": true,
          "internalType": "address",
          "name": "poolAddress",
          "type": "address"
        },
        {
          "indexed": false,
          "internalType": "uint256",
          "name": "poolIndex",
          "type": "uint256"
        },
        {
          "indexed": false,
          "internalType": "uint256",
          "name": "timestamp",
          "type": "uint256"
        }
      ],
      "name": "CreatedPool",
      "type": "event"
    },
    {
      "anonymous": false,
      "inputs": [
        {
          "indexed": true,
          "internalType": "address",
          "name": "user",
          "type": "address"
        },
        {
          "indexed": true,
          "internalType": "address",
          "name": "poolAddress",
          "type": "address"
        },
        {
          "indexed": false,
          "internalType": "uint256",
          "name": "amount",
          "type": "uint256"
        },
        {
          "indexed": false,
          "internalType": "uint256",
          "name": "timestamp",
          "type": "uint256"
        }
      ],
      "name": "DepositedFundsIntoPool",
      "type": "event"
    },
    {
      "anonymous": false,
      "inputs": [
        {
          "indexed": true,
          "internalType": "address",
          "name": "poolAddress",
          "type": "address"
        },
        {
          "indexed": true,
          "internalType": "address",
          "name": "currencyKey",
          "type": "address"
        },
        {
          "indexed": false,
          "internalType": "bool",
          "name": "buyOrSell",
          "type": "bool"
        },
        {
          "indexed": false,
          "internalType": "uint256",
          "name": "numberOfTokens",
          "type": "uint256"
        },
        {
          "indexed": false,
          "internalType": "uint256",
          "name": "timestamp",
          "type": "uint256"
        }
      ],
      "name": "PlacedOrder",
      "type": "event"
    },
    {
      "anonymous": false,
      "inputs": [
        {
          "indexed": true,
          "internalType": "address",
          "name": "poolAddress",
          "type": "address"
        },
        {
          "indexed": false,
          "internalType": "address",
          "name": "farmAddress",
          "type": "address"
        },
        {
          "indexed": false,
          "internalType": "uint256",
          "name": "timestamp",
          "type": "uint256"
        }
      ],
      "name": "UpdatedFarmAddress",
      "type": "event"
    },
    {
      "anonymous": false,
      "inputs": [
        {
          "indexed": true,
          "internalType": "address",
          "name": "user",
          "type": "address"
        },
        {
          "indexed": true,
          "internalType": "address",
          "name": "poolAddress",
          "type": "address"
        },
        {
          "indexed": false,
          "internalType": "uint256",
          "name": "amount",
          "type": "uint256"
        },
        {
          "indexed": false,
          "internalType": "uint256",
          "name": "timestamp",
          "type": "uint256"
        }
      ],
      "name": "WithdrewFundsFromPool",
      "type": "event"
    },
    {
      "inputs": [],
      "name": "ADDRESS_RESOLVER",
      "outputs": [
        {
          "internalType": "contract IAddressResolver",
          "name": "",
          "type": "address"
        }
      ],
      "stateMutability": "view",
      "type": "function"
    },
    {
      "inputs": [
        {
          "internalType": "address",
          "name": "",
          "type": "address"
        }
      ],
      "name": "addressToIndex",
      "outputs": [
        {
          "internalType": "uint256",
          "name": "",
          "type": "uint256"
        }
      ],
      "stateMutability": "view",
      "type": "function"
    },
    {
      "inputs": [
        {
          "internalType": "uint256",
          "name": "",
          "type": "uint256"
        }
      ],
      "name": "pools",
      "outputs": [
        {
          "internalType": "address",
          "name": "",
          "type": "address"
        }
      ],
      "stateMutability": "view",
      "type": "function"
    },
    {
      "inputs": [
        {
          "internalType": "address",
          "name": "",
          "type": "address"
        },
        {
          "internalType": "uint256",
          "name": "",
          "type": "uint256"
        }
      ],
      "name": "userToInvestedPools",
      "outputs": [
        {
          "internalType": "uint256",
          "name": "",
          "type": "uint256"
        }
      ],
      "stateMutability": "view",
      "type": "function"
    },
    {
      "inputs": [
        {
          "internalType": "address",
          "name": "",
          "type": "address"
        },
        {
          "internalType": "uint256",
          "name": "",
          "type": "uint256"
        }
      ],
      "name": "userToManagedPools",
      "outputs": [
        {
          "internalType": "uint256",
          "name": "",
          "type": "uint256"
        }
      ],
      "stateMutability": "view",
      "type": "function"
    },
    {
      "inputs": [
        {
          "internalType": "address",
          "name": "user",
          "type": "address"
        }
      ],
      "name": "getUserManagedPools",
      "outputs": [
        {
          "internalType": "address[]",
          "name": "",
          "type": "address[]"
        }
      ],
      "stateMutability": "view",
      "type": "function"
    },
    {
      "inputs": [
        {
          "internalType": "address",
          "name": "user",
          "type": "address"
        }
      ],
      "name": "getUserInvestedPools",
      "outputs": [
        {
          "internalType": "address[]",
          "name": "",
          "type": "address[]"
        }
      ],
      "stateMutability": "view",
      "type": "function"
    },
    {
      "inputs": [
        {
          "internalType": "address",
          "name": "user",
          "type": "address"
        }
      ],
      "name": "getUserStakedPools",
      "outputs": [
        {
          "internalType": "address[]",
          "name": "",
          "type": "address[]"
        },
        {
          "internalType": "uint256",
          "name": "",
          "type": "uint256"
        }
      ],
      "stateMutability": "view",
      "type": "function"
    },
    {
      "inputs": [],
      "name": "getAvailablePools",
      "outputs": [
        {
          "internalType": "address[]",
          "name": "",
          "type": "address[]"
        }
      ],
      "stateMutability": "view",
      "type": "function"
    },
    {
      "inputs": [
        {
          "internalType": "string",
          "name": "poolName",
          "type": "string"
        },
        {
          "internalType": "uint256",
          "name": "performanceFee",
          "type": "uint256"
        }
      ],
      "name": "createPool",
      "outputs": [],
      "stateMutability": "nonpayable",
      "type": "function"
    },
    {
      "inputs": [
        {
          "internalType": "address",
          "name": "poolAddress",
          "type": "address"
        },
        {
          "internalType": "uint256",
          "name": "amount",
          "type": "uint256"
        }
      ],
      "name": "withdraw",
      "outputs": [],
      "stateMutability": "nonpayable",
      "type": "function"
    },
    {
      "inputs": [
        {
          "internalType": "address",
          "name": "poolAddress",
          "type": "address"
        },
        {
          "internalType": "uint256",
          "name": "amount",
          "type": "uint256"
        }
      ],
      "name": "deposit",
      "outputs": [],
      "stateMutability": "nonpayable",
      "type": "function"
    },
    {
      "inputs": [
        {
          "internalType": "address",
          "name": "poolAddress",
          "type": "address"
        },
        {
          "internalType": "address",
          "name": "currencyKey",
          "type": "address"
        },
        {
          "internalType": "bool",
          "name": "buyOrSell",
          "type": "bool"
        },
        {
          "internalType": "uint256",
          "name": "numberOfTokens",
          "type": "uint256"
        }
      ],
      "name": "placeOrder",
      "outputs": [],
      "stateMutability": "nonpayable",
      "type": "function"
    },
    {
      "inputs": [
        {
          "internalType": "address",
          "name": "poolAddress",
          "type": "address"
        },
        {
          "internalType": "address",
          "name": "farmAddress",
          "type": "address"
        }
      ],
      "name": "setFarmAddress",
      "outputs": [],
      "stateMutability": "nonpayable",
      "type": "function"
    }
  ],
  "bytecode": "0x60c060405234801561001057600080fd5b50604051620079dc380380620079dc8339818101604052602081101561003557600080fd5b8101908080519060200190929190505050808073ffffffffffffffffffffffffffffffffffffffff1660808173ffffffffffffffffffffffffffffffffffffffff1660601b81525050503373ffffffffffffffffffffffffffffffffffffffff1660a08173ffffffffffffffffffffffffffffffffffffffff1660601b815250505060805160601c60a05160601c6178ce6200010e600039806108ce5250806107965280610b0e5280610ea55280610f5152806110f252806114da5280611a195280611aa752806122735280612bdf52506178ce6000f3fe60806040523480156200001157600080fd5b5060043610620001005760003560e01c80637a0b32ac1162000099578063e30658f6116200006f578063e30658f61462000561578063e48f93781462000606578063f3fef3a314620006a4578063f667e0aa14620006f55762000100565b80637a0b32ac146200046b578063981f3b8e14620004d0578063ac4afa3814620005065762000100565b806326fc66ab11620000db57806326fc66ab146200026f57806347e7ef24146200033a57806365cdf540146200038b5780637517f18314620004085762000100565b8063081c2a30146200010557806318ec3f6514620001a35780631fb16e581462000208575b600080fd5b6200014a600480360360208110156200011d57600080fd5b81019080803573ffffffffffffffffffffffffffffffffffffffff16906020019092919050505062000750565b6040518080602001828103825283818151815260200191508051906020019060200280838360005b838110156200018f57808201518184015260208101905062000172565b505050509050019250505060405180910390f35b620001f260048036036040811015620001bb57600080fd5b81019080803573ffffffffffffffffffffffffffffffffffffffff1690602001909291908035906020019092919050505062000764565b6040518082815260200191505060405180910390f35b6200026d600480360360408110156200022057600080fd5b81019080803573ffffffffffffffffffffffffffffffffffffffff169060200190929190803573ffffffffffffffffffffffffffffffffffffffff16906020019092919050505062000793565b005b62000338600480360360408110156200028757600080fd5b8101908080359060200190640100000000811115620002a557600080fd5b820183602082011115620002b857600080fd5b80359060200191846001830284011164010000000083111715620002db57600080fd5b91908080601f016020809104026020016040519081016040528093929190818152602001838380828437600081840152601f19601f8201169050808301925050505050505091929192908035906020019092919050505062000b0a565b005b62000389600480360360408110156200035257600080fd5b81019080803573ffffffffffffffffffffffffffffffffffffffff1690602001909291908035906020019092919050505062000f4e565b005b6200040660048036036080811015620003a357600080fd5b81019080803573ffffffffffffffffffffffffffffffffffffffff169060200190929190803573ffffffffffffffffffffffffffffffffffffffff16906020019092919080351515906020019092919080359060200190929190505050620014d7565b005b62000412620019d7565b6040518080602001828103825283818151815260200191508051906020019060200280838360005b83811015620004575780820151818401526020810190506200043a565b505050509050019250505060405180910390f35b620004ba600480360360408110156200048357600080fd5b81019080803573ffffffffffffffffffffffffffffffffffffffff16906020019092919080359060200190929190505050620019e8565b6040518082815260200191505060405180910390f35b620004da62001a17565b604051808273ffffffffffffffffffffffffffffffffffffffff16815260200191505060405180910390f35b62000535600480360360208110156200051e57600080fd5b810190808035906020019092919050505062001a3b565b604051808273ffffffffffffffffffffffffffffffffffffffff16815260200191505060405180910390f35b620005a6600480360360208110156200057957600080fd5b81019080803573ffffffffffffffffffffffffffffffffffffffff16906020019092919050505062001a78565b6040518080602001838152602001828103825284818151815260200191508051906020019060200280838360005b83811015620005f1578082015181840152602081019050620005d4565b50505050905001935050505060405180910390f35b6200064b600480360360208110156200061e57600080fd5b81019080803573ffffffffffffffffffffffffffffffffffffffff16906020019092919050505062001a90565b6040518080602001828103825283818151815260200191508051906020019060200280838360005b838110156200069057808201518184015260208101905062000673565b505050509050019250505060405180910390f35b620006f360048036036040811015620006bc57600080fd5b81019080803573ffffffffffffffffffffffffffffffffffffffff1690602001909291908035906020019092919050505062001aa4565b005b6200073a600480360360208110156200070d57600080fd5b81019080803573ffffffffffffffffffffffffffffffffffffffff16906020019092919050505062001d41565b6040518082815260200191505060405180910390f35b60606200075d8262001d59565b9050919050565b600260205281600052604060002081815481106200077e57fe5b90600052602060002001600091509150505481565b817f000000000000000000000000000000000000000000000000000000000000000073ffffffffffffffffffffffffffffffffffffffff1663e51f8aba826040518263ffffffff1660e01b8152600401808273ffffffffffffffffffffffffffffffffffffffff16815260200191505060206040518083038186803b1580156200081c57600080fd5b505afa15801562000831573d6000803e3d6000fd5b505050506040513d60208110156200084857600080fd5b8101908080519060200190929190505050620008cc576040517f08c379a00000000000000000000000000000000000000000000000000000000081526004018080602001828103825260148152602001807f496e76616c696420706f6f6c206164647265737300000000000000000000000081525060200191505060405180910390fd5b7f000000000000000000000000000000000000000000000000000000000000000073ffffffffffffffffffffffffffffffffffffffff163373ffffffffffffffffffffffffffffffffffffffff161462000972576040517f08c379a000000000000000000000000000000000000000000000000000000000815260040180806020018281038252602e815260200180620077b8602e913960400191505060405180910390fd5b600073ffffffffffffffffffffffffffffffffffffffff168273ffffffffffffffffffffffffffffffffffffffff16141562000a16576040517f08c379a00000000000000000000000000000000000000000000000000000000081526004018080602001828103825260148152602001807f496e76616c6964206661726d206164647265737300000000000000000000000081525060200191505060405180910390fd5b8273ffffffffffffffffffffffffffffffffffffffff1663d9799809836040518263ffffffff1660e01b8152600401808273ffffffffffffffffffffffffffffffffffffffff168152602001915050600060405180830381600087803b15801562000a8057600080fd5b505af115801562000a95573d6000803e3d6000fd5b505050508273ffffffffffffffffffffffffffffffffffffffff167f0b573389cc314585efb6a07f9e19191d0152f7bf4484b05181383bddbd6d8e798342604051808373ffffffffffffffffffffffffffffffffffffffff1681526020018281526020019250505060405180910390a2505050565b60007f000000000000000000000000000000000000000000000000000000000000000073ffffffffffffffffffffffffffffffffffffffff166304433bbc6040518163ffffffff1660e01b81526004018080602001828103825260088152602001807f53657474696e677300000000000000000000000000000000000000000000000081525060200191505060206040518083038186803b15801562000baf57600080fd5b505afa15801562000bc4573d6000803e3d6000fd5b505050506040513d602081101562000bdb57600080fd5b8101908080519060200190929190505050905060008173ffffffffffffffffffffffffffffffffffffffff166328a2176f6040518163ffffffff1660e01b81526004018080602001828103825260158152602001807f4d6178696d756d506572666f726d616e6365466565000000000000000000000081525060200191505060206040518083038186803b15801562000c7357600080fd5b505afa15801562000c88573d6000803e3d6000fd5b505050506040513d602081101562000c9f57600080fd5b8101908080519060200190929190505050905060008273ffffffffffffffffffffffffffffffffffffffff166328a2176f6040518163ffffffff1660e01b815260040180806020018281038252601b8152602001807f4d6178696d756d4e756d6265724f66506f6f6c7350657255736572000000000081525060200191505060206040518083038186803b15801562000d3757600080fd5b505afa15801562000d4c573d6000803e3d6000fd5b505050506040513d602081101562000d6357600080fd5b81019080805190602001909291905050509050601e85511062000dd2576040517f08c379a000000000000000000000000000000000000000000000000000000000815260040180806020018281038252602b8152602001806200786e602b913960400191505060405180910390fd5b8184111562000e2d576040517f08c379a0000000000000000000000000000000000000000000000000000000008152600401808060200182810382526025815260200180620077936025913960400191505060405180910390fd5b8062000e393362001fe2565b511062000e92576040517f08c379a000000000000000000000000000000000000000000000000000000000815260040180806020018281038252602e81526020018062007840602e913960400191505060405180910390fd5b600062000ea18686336200226b565b90507f000000000000000000000000000000000000000000000000000000000000000073ffffffffffffffffffffffffffffffffffffffff166343499844826040518263ffffffff1660e01b8152600401808273ffffffffffffffffffffffffffffffffffffffff168152602001915050600060405180830381600087803b15801562000f2d57600080fd5b505af115801562000f42573d6000803e3d6000fd5b50505050505050505050565b817f000000000000000000000000000000000000000000000000000000000000000073ffffffffffffffffffffffffffffffffffffffff1663e51f8aba826040518263ffffffff1660e01b8152600401808273ffffffffffffffffffffffffffffffffffffffff16815260200191505060206040518083038186803b15801562000fd757600080fd5b505afa15801562000fec573d6000803e3d6000fd5b505050506040513d60208110156200100357600080fd5b810190808051906020019092919050505062001087576040517f08c379a00000000000000000000000000000000000000000000000000000000081526004018080602001828103825260148152602001807f496e76616c696420706f6f6c206164647265737300000000000000000000000081525060200191505060405180910390fd5b60008211620010e2576040517f08c379a0000000000000000000000000000000000000000000000000000000008152600401808060200182810382526025815260200180620077406025913960400191505060405180910390fd5b620010ee338462002513565b60007f000000000000000000000000000000000000000000000000000000000000000073ffffffffffffffffffffffffffffffffffffffff166304433bbc6040518163ffffffff1660e01b81526004018080602001828103825260088152602001807f53657474696e677300000000000000000000000000000000000000000000000081525060200191505060206040518083038186803b1580156200119357600080fd5b505afa158015620011a8573d6000803e3d6000fd5b505050506040513d6020811015620011bf57600080fd5b8101908080519060200190929190505050905060008173ffffffffffffffffffffffffffffffffffffffff1663be781b1c6040518163ffffffff1660e01b815260040160206040518083038186803b1580156200121b57600080fd5b505afa15801562001230573d6000803e3d6000fd5b505050506040513d60208110156200124757600080fd5b810190808051906020019092919050505090508073ffffffffffffffffffffffffffffffffffffffff166323b872dd3330876040518463ffffffff1660e01b8152600401808473ffffffffffffffffffffffffffffffffffffffff1681526020018373ffffffffffffffffffffffffffffffffffffffff1681526020018281526020019350505050602060405180830381600087803b158015620012ea57600080fd5b505af1158015620012ff573d6000803e3d6000fd5b505050506040513d60208110156200131657600080fd5b8101908080519060200190929190505050508073ffffffffffffffffffffffffffffffffffffffff1663095ea7b386866040518363ffffffff1660e01b8152600401808373ffffffffffffffffffffffffffffffffffffffff16815260200182815260200192505050602060405180830381600087803b1580156200139a57600080fd5b505af1158015620013af573d6000803e3d6000fd5b505050506040513d6020811015620013c657600080fd5b8101908080519060200190929190505050508473ffffffffffffffffffffffffffffffffffffffff166347e7ef2433866040518363ffffffff1660e01b8152600401808373ffffffffffffffffffffffffffffffffffffffff16815260200182815260200192505050600060405180830381600087803b1580156200144a57600080fd5b505af11580156200145f573d6000803e3d6000fd5b505050508473ffffffffffffffffffffffffffffffffffffffff163373ffffffffffffffffffffffffffffffffffffffff167f0eb1bd5716040080f7b533c81b41fc4489007e229d63ec955934adf0908f75f98642604051808381526020018281526020019250505060405180910390a35050505050565b837f000000000000000000000000000000000000000000000000000000000000000073ffffffffffffffffffffffffffffffffffffffff1663e51f8aba826040518263ffffffff1660e01b8152600401808273ffffffffffffffffffffffffffffffffffffffff16815260200191505060206040518083038186803b1580156200156057600080fd5b505afa15801562001575573d6000803e3d6000fd5b505050506040513d60208110156200158c57600080fd5b810190808051906020019092919050505062001610576040517f08c379a00000000000000000000000000000000000000000000000000000000081526004018080602001828103825260148152602001807f496e76616c696420706f6f6c206164647265737300000000000000000000000081525060200191505060405180910390fd5b8460008173ffffffffffffffffffffffffffffffffffffffff1663c162d7da6040518163ffffffff1660e01b815260040160206040518083038186803b1580156200165a57600080fd5b505afa1580156200166f573d6000803e3d6000fd5b505050506040513d60208110156200168657600080fd5b810190808051906020019092919050505090508073ffffffffffffffffffffffffffffffffffffffff163373ffffffffffffffffffffffffffffffffffffffff16146200171f576040517f08c379a000000000000000000000000000000000000000000000000000000000815260040180806020018281038252602e81526020018062007765602e913960400191505060405180910390fd5b600073ffffffffffffffffffffffffffffffffffffffff168773ffffffffffffffffffffffffffffffffffffffff161415620017c3576040517f08c379a00000000000000000000000000000000000000000000000000000000081526004018080602001828103825260148152602001807f496e76616c696420706f6f6c206164647265737300000000000000000000000081525060200191505060405180910390fd5b600073ffffffffffffffffffffffffffffffffffffffff168673ffffffffffffffffffffffffffffffffffffffff16141562001867576040517f08c379a00000000000000000000000000000000000000000000000000000000081526004018080602001828103825260148152602001807f496e76616c69642063757272656e6379206b657900000000000000000000000081525060200191505060405180910390fd5b60008411620018c2576040517f08c379a00000000000000000000000000000000000000000000000000000000081526004018080602001828103825260328152602001806200780e6032913960400191505060405180910390fd5b8673ffffffffffffffffffffffffffffffffffffffff1663f29625598787876040518463ffffffff1660e01b8152600401808473ffffffffffffffffffffffffffffffffffffffff16815260200183151581526020018281526020019350505050600060405180830381600087803b1580156200193e57600080fd5b505af115801562001953573d6000803e3d6000fd5b505050508573ffffffffffffffffffffffffffffffffffffffff168773ffffffffffffffffffffffffffffffffffffffff167fce36a85b5be955836f12a0d8f59f3814444727532466c99a7f8db34b87590600878742604051808415158152602001838152602001828152602001935050505060405180910390a350505050505050565b6060620019e362002674565b905090565b6001602052816000526040600020818154811062001a0257fe5b90600052602060002001600091509150505481565b7f000000000000000000000000000000000000000000000000000000000000000081565b6000818154811062001a4957fe5b906000526020600020016000915054906101000a900473ffffffffffffffffffffffffffffffffffffffff1681565b6060600062001a878362002704565b91509150915091565b606062001a9d8262001fe2565b9050919050565b817f000000000000000000000000000000000000000000000000000000000000000073ffffffffffffffffffffffffffffffffffffffff1663e51f8aba826040518263ffffffff1660e01b8152600401808273ffffffffffffffffffffffffffffffffffffffff16815260200191505060206040518083038186803b15801562001b2d57600080fd5b505afa15801562001b42573d6000803e3d6000fd5b505050506040513d602081101562001b5957600080fd5b810190808051906020019092919050505062001bdd576040517f08c379a00000000000000000000000000000000000000000000000000000000081526004018080602001828103825260148152602001807f496e76616c696420706f6f6c206164647265737300000000000000000000000081525060200191505060405180910390fd5b6000821162001c38576040517f08c379a0000000000000000000000000000000000000000000000000000000008152600401808060200182810382526028815260200180620077e66028913960400191505060405180910390fd5b8273ffffffffffffffffffffffffffffffffffffffff1663f3fef3a333846040518363ffffffff1660e01b8152600401808373ffffffffffffffffffffffffffffffffffffffff16815260200182815260200192505050600060405180830381600087803b15801562001caa57600080fd5b505af115801562001cbf573d6000803e3d6000fd5b5050505062001ccf338462002b1d565b8273ffffffffffffffffffffffffffffffffffffffff163373ffffffffffffffffffffffffffffffffffffffff167fcd66141cfde93a4c7ec1f982902a7c551ee653bcd0579aa9ba0e05c71410d0f78442604051808381526020018281526020019250505060405180910390a3505050565b60036020528060005260406000206000915090505481565b6060600073ffffffffffffffffffffffffffffffffffffffff168273ffffffffffffffffffffffffffffffffffffffff16141562001dff576040517f08c379a000000000000000000000000000000000000000000000000000000000815260040180806020018281038252600f8152602001807f496e76616c69642061646472657373000000000000000000000000000000000081525060200191505060405180910390fd5b6060600260008473ffffffffffffffffffffffffffffffffffffffff1673ffffffffffffffffffffffffffffffffffffffff1681526020019081526020016000208054905067ffffffffffffffff8111801562001e5b57600080fd5b5060405190808252806020026020018201604052801562001e8b5781602001602082028036833780820191505090505b5090506060600260008573ffffffffffffffffffffffffffffffffffffffff1673ffffffffffffffffffffffffffffffffffffffff16815260200190815260200160002080548060200260200160405190810160405280929190818152602001828054801562001f1b57602002820191906000526020600020905b81548152602001906001019080831162001f06575b5050505050905060005b825181101562001fd757600082828151811062001f3e57fe5b602002602001015190506000818154811062001f5657fe5b9060005260206000200160009054906101000a900473ffffffffffffffffffffffffffffffffffffffff1684838151811062001f8e57fe5b602002602001019073ffffffffffffffffffffffffffffffffffffffff16908173ffffffffffffffffffffffffffffffffffffffff168152505050808060010191505062001f25565b508192505050919050565b6060600073ffffffffffffffffffffffffffffffffffffffff168273ffffffffffffffffffffffffffffffffffffffff16141562002088576040517f08c379a000000000000000000000000000000000000000000000000000000000815260040180806020018281038252600f8152602001807f496e76616c69642061646472657373000000000000000000000000000000000081525060200191505060405180910390fd5b6060600160008473ffffffffffffffffffffffffffffffffffffffff1673ffffffffffffffffffffffffffffffffffffffff1681526020019081526020016000208054905067ffffffffffffffff81118015620020e457600080fd5b50604051908082528060200260200182016040528015620021145781602001602082028036833780820191505090505b5090506060600160008573ffffffffffffffffffffffffffffffffffffffff1673ffffffffffffffffffffffffffffffffffffffff168152602001908152602001600020805480602002602001604051908101604052809291908181526020018280548015620021a457602002820191906000526020600020905b8154815260200190600101908083116200218f575b5050505050905060005b825181101562002260576000828281518110620021c757fe5b6020026020010151905060008181548110620021df57fe5b9060005260206000200160009054906101000a900473ffffffffffffffffffffffffffffffffffffffff168483815181106200221757fe5b602002602001019073ffffffffffffffffffffffffffffffffffffffff16908173ffffffffffffffffffffffffffffffffffffffff1681525050508080600101915050620021ae565b508192505050919050565b6000808484847f0000000000000000000000000000000000000000000000000000000000000000604051620022a09062003018565b80806020018581526020018473ffffffffffffffffffffffffffffffffffffffff1681526020018373ffffffffffffffffffffffffffffffffffffffff168152602001828103825286818151815260200191508051906020019080838360005b838110156200231d57808201518184015260208101905062002300565b50505050905090810190601f1680156200234b5780820380516001836020036101000a031916815260200191505b5095505050505050604051809103906000f08015801562002370573d6000803e3d6000fd5b50905060008190506000819080600181540180825580915050600190039060005260206000200160009091909190916101000a81548173ffffffffffffffffffffffffffffffffffffffff021916908373ffffffffffffffffffffffffffffffffffffffff160217905550600160008573ffffffffffffffffffffffffffffffffffffffff1673ffffffffffffffffffffffffffffffffffffffff1681526020019081526020016000206001600080549050039080600181540180825580915050600190039060005260206000200160009091909190915055600080549050600360008373ffffffffffffffffffffffffffffffffffffffff1673ffffffffffffffffffffffffffffffffffffffff168152602001908152602001600020819055508073ffffffffffffffffffffffffffffffffffffffff168473ffffffffffffffffffffffffffffffffffffffff167f86e8d285f3aca144a05c4f811c981e98a2beba0e30a1e8385052b05b8a96b4b160016000805490500342604051808381526020018281526020019250505060405180910390a380925050509392505050565b60008173ffffffffffffffffffffffffffffffffffffffff166370a08231846040518263ffffffff1660e01b8152600401808273ffffffffffffffffffffffffffffffffffffffff16815260200191505060206040518083038186803b1580156200257d57600080fd5b505afa15801562002592573d6000803e3d6000fd5b505050506040513d6020811015620025a957600080fd5b81019080805190602001909291905050501415620026705760006001600360008473ffffffffffffffffffffffffffffffffffffffff1673ffffffffffffffffffffffffffffffffffffffff16815260200190815260200160002054039050600260008473ffffffffffffffffffffffffffffffffffffffff1673ffffffffffffffffffffffffffffffffffffffff168152602001908152602001600020819080600181540180825580915050600190039060005260206000200160009091909190915055505b5050565b60606000805480602002602001604051908101604052809291908181526020018280548015620026fa57602002820191906000526020600020905b8160009054906101000a900473ffffffffffffffffffffffffffffffffffffffff1673ffffffffffffffffffffffffffffffffffffffff1681526020019060010190808311620026af575b5050505050905090565b606060008073ffffffffffffffffffffffffffffffffffffffff168373ffffffffffffffffffffffffffffffffffffffff161415620027ab576040517f08c379a000000000000000000000000000000000000000000000000000000000815260040180806020018281038252600f8152602001807f496e76616c69642061646472657373000000000000000000000000000000000081525060200191505060405180910390fd5b60006060600260008673ffffffffffffffffffffffffffffffffffffffff1673ffffffffffffffffffffffffffffffffffffffff1681526020019081526020016000208054905067ffffffffffffffff811180156200280957600080fd5b50604051908082528060200260200182016040528015620028395781602001602082028036833780820191505090505b5090506060600260008773ffffffffffffffffffffffffffffffffffffffff1673ffffffffffffffffffffffffffffffffffffffff168152602001908152602001600020805480602002602001604051908101604052809291908181526020018280548015620028c957602002820191906000526020600020905b815481526020019060010190808311620028b4575b5050505050905060005b825181101562002b0e576000828281518110620028ec57fe5b6020026020010151905060008082815481106200290557fe5b9060005260206000200160009054906101000a900473ffffffffffffffffffffffffffffffffffffffff16905060008173ffffffffffffffffffffffffffffffffffffffff16636e1d9d2d6040518163ffffffff1660e01b815260040160206040518083038186803b1580156200297b57600080fd5b505afa15801562002990573d6000803e3d6000fd5b505050506040513d6020811015620029a757600080fd5b8101908080519060200190929190505050905060008073ffffffffffffffffffffffffffffffffffffffff168273ffffffffffffffffffffffffffffffffffffffff161415620029f957600062002a9f565b8173ffffffffffffffffffffffffffffffffffffffff166370a082318c6040518263ffffffff1660e01b8152600401808273ffffffffffffffffffffffffffffffffffffffff16815260200191505060206040518083038186803b15801562002a6157600080fd5b505afa15801562002a76573d6000803e3d6000fd5b505050506040513d602081101562002a8d57600080fd5b81019080805190602001909291905050505b9050600081111562002afc578287898151811062002ab957fe5b602002602001019073ffffffffffffffffffffffffffffffffffffffff16908173ffffffffffffffffffffffffffffffffffffffff168152505087806001019850505b505050508080600101915050620028d3565b50818394509450505050915091565b60008173ffffffffffffffffffffffffffffffffffffffff166370a08231846040518263ffffffff1660e01b8152600401808273ffffffffffffffffffffffffffffffffffffffff16815260200191505060206040518083038186803b15801562002b8757600080fd5b505afa15801562002b9c573d6000803e3d6000fd5b505050506040513d602081101562002bb357600080fd5b8101908080519060200190929190505050141562002bd85762002bd7828262002bdc565b5b5050565b807f000000000000000000000000000000000000000000000000000000000000000073ffffffffffffffffffffffffffffffffffffffff1663e51f8aba826040518263ffffffff1660e01b8152600401808273ffffffffffffffffffffffffffffffffffffffff16815260200191505060206040518083038186803b15801562002c6557600080fd5b505afa15801562002c7a573d6000803e3d6000fd5b505050506040513d602081101562002c9157600080fd5b810190808051906020019092919050505062002d15576040517f08c379a00000000000000000000000000000000000000000000000000000000081526004018080602001828103825260148152602001807f496e76616c696420706f6f6c206164647265737300000000000000000000000081525060200191505060405180910390fd5b600080600360008573ffffffffffffffffffffffffffffffffffffffff1673ffffffffffffffffffffffffffffffffffffffff168152602001908152602001600020549050600091505b600260008673ffffffffffffffffffffffffffffffffffffffff1673ffffffffffffffffffffffffffffffffffffffff1681526020019081526020016000208054905082101562002dc7578082141562002db95762002dc7565b818060010192505062002d5f565b600260008673ffffffffffffffffffffffffffffffffffffffff1673ffffffffffffffffffffffffffffffffffffffff16815260200190815260200160002080549050821062002e7f576040517f08c379a00000000000000000000000000000000000000000000000000000000081526004018080602001828103825260128152602001807f506f736974696f6e206e6f7420666f756e64000000000000000000000000000081525060200191505060405180910390fd5b600260008673ffffffffffffffffffffffffffffffffffffffff1673ffffffffffffffffffffffffffffffffffffffff1681526020019081526020016000206001600260008873ffffffffffffffffffffffffffffffffffffffff1673ffffffffffffffffffffffffffffffffffffffff16815260200190815260200160002080549050038154811062002f0f57fe5b9060005260206000200154600260008773ffffffffffffffffffffffffffffffffffffffff1673ffffffffffffffffffffffffffffffffffffffff168152602001908152602001600020838154811062002f6557fe5b9060005260206000200181905550600260008673ffffffffffffffffffffffffffffffffffffffff1673ffffffffffffffffffffffffffffffffffffffff1681526020019081526020016000206001600260008873ffffffffffffffffffffffffffffffffffffffff1673ffffffffffffffffffffffffffffffffffffffff1681526020019081526020016000208054905003815481106200300357fe5b90600052602060002001600090555050505050565b61471980620030278339019056fe60806040523480156200001157600080fd5b506040516200471938038062004719833981810160405260808110156200003757600080fd5b81019080805160405193929190846401000000008211156200005857600080fd5b838201915060208201858111156200006f57600080fd5b82518660018202830111640100000000821117156200008d57600080fd5b8083526020830192505050908051906020019080838360005b83811015620000c3578082015181840152602081019050620000a6565b50505050905090810190601f168015620000f15780820380516001836020036101000a031916815260200191505b50604052602001805190602001909291908051906020019092919080519060200190929190505050836001908051906020019062000131929190620001c4565b5081600360006101000a81548173ffffffffffffffffffffffffffffffffffffffff021916908373ffffffffffffffffffffffffffffffffffffffff16021790555082600481905550806000806101000a81548173ffffffffffffffffffffffffffffffffffffffff021916908373ffffffffffffffffffffffffffffffffffffffff160217905550505050506200026a565b828054600181600116156101000203166002900490600052602060002090601f016020900481019282601f106200020757805160ff191683800117855562000238565b8280016001018555821562000238579182015b82811115620002375782518255916020019190600101906200021a565b5b5090506200024791906200024b565b5090565b5b80821115620002665760008160009055506001016200024c565b5090565b61449f806200027a6000396000f3fe608060405234801561001057600080fd5b50600436106101da5760003560e01c8063981f3b8e11610104578063cca3e832116100a2578063f0329f6b11610071578063f0329f6b146109b3578063f0f3da5e146109e7578063f296255914610a1b578063f3fef3a314610a75576101da565b8063cca3e8321461081c578063d28d885214610874578063d9799809146108f7578063dd62ed3e1461093b576101da565b8063abd70aa2116100de578063abd70aa2146106fe578063ac08c5741461071c578063ae3eb304146107ca578063c162d7da146107e8576101da565b8063981f3b8e1461060e5780639d2d665814610642578063a9059cbb1461069a576101da565b8063313ce5671161017c5780636e1d9d2d1161014b5780636e1d9d2d146104e157806370a082311461051557806380e282931461056d57806395d89b411461058b576101da565b8063313ce567146104365780633eaaf86b1461045757806347e7ef24146104755780635195bd29146104c3576101da565b80632322e3b9116101b85780632322e3b9146102e4578063235c36031461033c57806323b872dd1461035a5780632ed8e0d4146103de576101da565b806306fdde03146101df578063095ea7b31461026257806318160ddd146102c6575b600080fd5b6101e7610ac3565b6040518080602001828103825283818151815260200191508051906020019080838360005b8381101561022757808201518184015260208101905061020c565b50505050905090810190601f1680156102545780820380516001836020036101000a031916815260200191505b509250505060405180910390f35b6102ae6004803603604081101561027857600080fd5b81019080803573ffffffffffffffffffffffffffffffffffffffff16906020019092919080359060200190929190505050610b65565b60405180821515815260200191505060405180910390f35b6102ce610b7c565b6040518082815260200191505060405180910390f35b610326600480360360208110156102fa57600080fd5b81019080803573ffffffffffffffffffffffffffffffffffffffff169060200190929190505050610b86565b6040518082815260200191505060405180910390f35b610344610ca4565b6040518082815260200191505060405180910390f35b6103c66004803603606081101561037057600080fd5b81019080803573ffffffffffffffffffffffffffffffffffffffff169060200190929190803573ffffffffffffffffffffffffffffffffffffffff16906020019092919080359060200190929190505050610cae565b60405180821515815260200191505060405180910390f35b61040a600480360360208110156103f457600080fd5b8101908080359060200190929190505050610e5a565b604051808273ffffffffffffffffffffffffffffffffffffffff16815260200191505060405180910390f35b61043e610e96565b604051808260ff16815260200191505060405180910390f35b61045f610e9f565b6040518082815260200191505060405180910390f35b6104c16004803603604081101561048b57600080fd5b81019080803573ffffffffffffffffffffffffffffffffffffffff16906020019092919080359060200190929190505050610ea5565b005b6104cb611605565b6040518082815260200191505060405180910390f35b6104e9611815565b604051808273ffffffffffffffffffffffffffffffffffffffff16815260200191505060405180910390f35b6105576004803603602081101561052b57600080fd5b81019080803573ffffffffffffffffffffffffffffffffffffffff16906020019092919050505061183f565b6040518082815260200191505060405180910390f35b61057561192a565b6040518082815260200191505060405180910390f35b610593611930565b6040518080602001828103825283818151815260200191508051906020019080838360005b838110156105d35780820151818401526020810190506105b8565b50505050905090810190601f1680156106005780820380516001836020036101000a031916815260200191505b509250505060405180910390f35b610616611947565b604051808273ffffffffffffffffffffffffffffffffffffffff16815260200191505060405180910390f35b6106846004803603602081101561065857600080fd5b81019080803573ffffffffffffffffffffffffffffffffffffffff16906020019092919050505061196b565b6040518082815260200191505060405180910390f35b6106e6600480360360408110156106b057600080fd5b81019080803573ffffffffffffffffffffffffffffffffffffffff16906020019092919080359060200190929190505050611983565b60405180821515815260200191505060405180910390f35b61070661199a565b6040518082815260200191505060405180910390f35b6107246119b0565b604051808060200180602001848152602001838103835286818151815260200191508051906020019060200280838360005b83811015610771578082015181840152602081019050610756565b50505050905001838103825285818151815260200191508051906020019060200280838360005b838110156107b3578082015181840152602081019050610798565b505050509050019550505050505060405180910390f35b6107d2611ecc565b6040518082815260200191505060405180910390f35b6107f0611ed2565b604051808273ffffffffffffffffffffffffffffffffffffffff16815260200191505060405180910390f35b61085e6004803603602081101561083257600080fd5b81019080803573ffffffffffffffffffffffffffffffffffffffff169060200190929190505050611efc565b6040518082815260200191505060405180910390f35b61087c611f14565b6040518080602001828103825283818151815260200191508051906020019080838360005b838110156108bc5780820151818401526020810190506108a1565b50505050905090810190601f1680156108e95780820380516001836020036101000a031916815260200191505b509250505060405180910390f35b6109396004803603602081101561090d57600080fd5b81019080803573ffffffffffffffffffffffffffffffffffffffff169060200190929190505050611fb2565b005b61099d6004803603604081101561095157600080fd5b81019080803573ffffffffffffffffffffffffffffffffffffffff169060200190929190803573ffffffffffffffffffffffffffffffffffffffff169060200190929190505050612200565b6040518082815260200191505060405180910390f35b6109bb612225565b604051808273ffffffffffffffffffffffffffffffffffffffff16815260200191505060405180910390f35b6109ef61224b565b604051808273ffffffffffffffffffffffffffffffffffffffff16815260200191505060405180910390f35b610a7360048036036060811015610a3157600080fd5b81019080803573ffffffffffffffffffffffffffffffffffffffff16906020019092919080351515906020019092919080359060200190929190505050612271565b005b610ac160048036036040811015610a8b57600080fd5b81019080803573ffffffffffffffffffffffffffffffffffffffff169060200190929190803590602001909291905050506131ee565b005b606060018054600181600116156101000203166002900480601f016020809104026020016040519081016040528092919081815260200182805460018160011615610100020316600290048015610b5b5780601f10610b3057610100808354040283529160200191610b5b565b820191906000526020600020905b815481529060010190602001808311610b3e57829003601f168201915b5050505050905090565b6000610b72338484613b12565b6001905092915050565b6000600254905090565b60008073ffffffffffffffffffffffffffffffffffffffff168273ffffffffffffffffffffffffffffffffffffffff161415610c2a576040517f08c379a000000000000000000000000000000000000000000000000000000000815260040180806020018281038252600f8152602001807f496e76616c69642061646472657373000000000000000000000000000000000081525060200191505060405180910390fd5b6000610c3461199a565b9050610c9c600254610c8e600760008773ffffffffffffffffffffffffffffffffffffffff1673ffffffffffffffffffffffffffffffffffffffff1681526020019081526020016000205484613bfd90919063ffffffff16565b613c3490919063ffffffff16565b915050919050565b6000600454905090565b600080600960008673ffffffffffffffffffffffffffffffffffffffff1673ffffffffffffffffffffffffffffffffffffffff16815260200190815260200160002060003373ffffffffffffffffffffffffffffffffffffffff1673ffffffffffffffffffffffffffffffffffffffff168152602001908152602001600020541115610e4457610dc382600960008773ffffffffffffffffffffffffffffffffffffffff1673ffffffffffffffffffffffffffffffffffffffff16815260200190815260200160002060003373ffffffffffffffffffffffffffffffffffffffff1673ffffffffffffffffffffffffffffffffffffffff16815260200190815260200160002054613c4d90919063ffffffff16565b600960008673ffffffffffffffffffffffffffffffffffffffff1673ffffffffffffffffffffffffffffffffffffffff16815260200190815260200160002060003373ffffffffffffffffffffffffffffffffffffffff1673ffffffffffffffffffffffffffffffffffffffff168152602001908152602001600020819055505b610e4f848484613c64565b600190509392505050565b600a8181548110610e6757fe5b906000526020600020016000915054906101000a900473ffffffffffffffffffffffffffffffffffffffff1681565b60006012905090565b60025481565b60008060009054906101000a900473ffffffffffffffffffffffffffffffffffffffff1673ffffffffffffffffffffffffffffffffffffffff166304433bbc6040518163ffffffff1660e01b81526004018080602001828103825260098152602001807f506f6f6c50726f7879000000000000000000000000000000000000000000000081525060200191505060206040518083038186803b158015610f4a57600080fd5b505afa158015610f5e573d6000803e3d6000fd5b505050506040513d6020811015610f7457600080fd5b810190808051906020019092919050505090508073ffffffffffffffffffffffffffffffffffffffff163373ffffffffffffffffffffffffffffffffffffffff161461100b576040517f08c379a00000000000000000000000000000000000000000000000000000000081526004018080602001828103825260348152602001806143c16034913960400191505060405180910390fd5b600073ffffffffffffffffffffffffffffffffffffffff168373ffffffffffffffffffffffffffffffffffffffff1614156110ae576040517f08c379a00000000000000000000000000000000000000000000000000000000081526004018080602001828103825260148152602001807f496e76616c69642075736572206164647265737300000000000000000000000081525060200191505060405180910390fd5b60008211611124576040517f08c379a000000000000000000000000000000000000000000000000000000000815260040180806020018281038252601e8152602001807f4465706f736974206d7573742062652067726561746572207468616e2030000081525060200191505060405180910390fd5b600061112e61199a565b9050600080600254116111415783611169565b6111688261115a86600254613bfd90919063ffffffff16565b613c3490919063ffffffff16565b5b90506111bd84600860008873ffffffffffffffffffffffffffffffffffffffff1673ffffffffffffffffffffffffffffffffffffffff16815260200190815260200160002054613df890919063ffffffff16565b600860008773ffffffffffffffffffffffffffffffffffffffff1673ffffffffffffffffffffffffffffffffffffffff1681526020019081526020016000208190555061121584600654613df890919063ffffffff16565b60068190555061126d81600760008873ffffffffffffffffffffffffffffffffffffffff1673ffffffffffffffffffffffffffffffffffffffff16815260200190815260200160002054613df890919063ffffffff16565b600760008773ffffffffffffffffffffffffffffffffffffffff1673ffffffffffffffffffffffffffffffffffffffff168152602001908152602001600020819055506112c581600254613df890919063ffffffff16565b60028190555060008060009054906101000a900473ffffffffffffffffffffffffffffffffffffffff1673ffffffffffffffffffffffffffffffffffffffff166304433bbc6040518163ffffffff1660e01b81526004018080602001828103825260088152602001807f53657474696e677300000000000000000000000000000000000000000000000081525060200191505060206040518083038186803b15801561137057600080fd5b505afa158015611384573d6000803e3d6000fd5b505050506040513d602081101561139a57600080fd5b8101908080519060200190929190505050905060008173ffffffffffffffffffffffffffffffffffffffff1663be781b1c6040518163ffffffff1660e01b815260040160206040518083038186803b1580156113f557600080fd5b505afa158015611409573d6000803e3d6000fd5b505050506040513d602081101561141f57600080fd5b810190808051906020019092919050505090508073ffffffffffffffffffffffffffffffffffffffff166323b872dd3330896040518463ffffffff1660e01b8152600401808473ffffffffffffffffffffffffffffffffffffffff1681526020018373ffffffffffffffffffffffffffffffffffffffff1681526020018281526020019350505050602060405180830381600087803b1580156114c157600080fd5b505af11580156114d5573d6000803e3d6000fd5b505050506040513d60208110156114eb57600080fd5b81019080805190602001909291905050505060005b600a8054905081101561158a578173ffffffffffffffffffffffffffffffffffffffff16600a828154811061153157fe5b9060005260206000200160009054906101000a900473ffffffffffffffffffffffffffffffffffffffff1673ffffffffffffffffffffffffffffffffffffffff16141561157d5761158a565b8080600101915050611500565b600a805490508114156115fb57600a829080600181540180825580915050600190039060005260206000200160009091909190916101000a81548173ffffffffffffffffffffffffffffffffffffffff021916908373ffffffffffffffffffffffffffffffffffffffff1602179055505b5050505050505050565b60008060008054906101000a900473ffffffffffffffffffffffffffffffffffffffff1673ffffffffffffffffffffffffffffffffffffffff166304433bbc6040518163ffffffff1660e01b81526004018080602001828103825260088152602001807f53657474696e677300000000000000000000000000000000000000000000000081525060200191505060206040518083038186803b1580156116aa57600080fd5b505afa1580156116be573d6000803e3d6000fd5b505050506040513d60208110156116d457600080fd5b8101908080519060200190929190505050905060008173ffffffffffffffffffffffffffffffffffffffff1663be781b1c6040518163ffffffff1660e01b815260040160206040518083038186803b15801561172f57600080fd5b505afa158015611743573d6000803e3d6000fd5b505050506040513d602081101561175957600080fd5b810190808051906020019092919050505090508073ffffffffffffffffffffffffffffffffffffffff166370a08231306040518263ffffffff1660e01b8152600401808273ffffffffffffffffffffffffffffffffffffffff16815260200191505060206040518083038186803b1580156117d357600080fd5b505afa1580156117e7573d6000803e3d6000fd5b505050506040513d60208110156117fd57600080fd5b81019080805190602001909291905050509250505090565b6000600560009054906101000a900473ffffffffffffffffffffffffffffffffffffffff16905090565b60008073ffffffffffffffffffffffffffffffffffffffff168273ffffffffffffffffffffffffffffffffffffffff1614156118e3576040517f08c379a00000000000000000000000000000000000000000000000000000000081526004018080602001828103825260148152602001807f496e76616c69642075736572206164647265737300000000000000000000000081525060200191505060405180910390fd5b600760008373ffffffffffffffffffffffffffffffffffffffff1673ffffffffffffffffffffffffffffffffffffffff168152602001908152602001600020549050919050565b60045481565b606060405180602001604052806000815250905090565b60008054906101000a900473ffffffffffffffffffffffffffffffffffffffff1681565b60086020528060005260406000206000915090505481565b6000611990338484613c64565b6001905092915050565b6000806119a56119b0565b925050508091505090565b60608060008060008054906101000a900473ffffffffffffffffffffffffffffffffffffffff1673ffffffffffffffffffffffffffffffffffffffff166304433bbc6040518163ffffffff1660e01b81526004018080602001828103825260128152602001807f426173655562657377617041646170746572000000000000000000000000000081525060200191505060206040518083038186803b158015611a5857600080fd5b505afa158015611a6c573d6000803e3d6000fd5b505050506040513d6020811015611a8257600080fd5b810190808051906020019092919050505090506060600a8054905067ffffffffffffffff81118015611ab357600080fd5b50604051908082528060200260200182016040528015611ae25781602001602082028036833780820191505090505b5090506060600a8054905067ffffffffffffffff81118015611b0357600080fd5b50604051908082528060200260200182016040528015611b325781602001602082028036833780820191505090505b509050600080600090505b600a80549050811015611eb957600a8181548110611b5757fe5b9060005260206000200160009054906101000a900473ffffffffffffffffffffffffffffffffffffffff1673ffffffffffffffffffffffffffffffffffffffff166370a08231306040518263ffffffff1660e01b8152600401808273ffffffffffffffffffffffffffffffffffffffff16815260200191505060206040518083038186803b158015611be857600080fd5b505afa158015611bfc573d6000803e3d6000fd5b505050506040513d6020811015611c1257600080fd5b8101908080519060200190929190505050838281518110611c2f57fe5b602002602001018181525050600a8181548110611c4857fe5b9060005260206000200160009054906101000a900473ffffffffffffffffffffffffffffffffffffffff16848281518110611c7f57fe5b602002602001019073ffffffffffffffffffffffffffffffffffffffff16908173ffffffffffffffffffffffffffffffffffffffff16815250506000600a8281548110611cc857fe5b9060005260206000200160009054906101000a900473ffffffffffffffffffffffffffffffffffffffff1673ffffffffffffffffffffffffffffffffffffffff1663313ce5676040518163ffffffff1660e01b815260040160206040518083038186803b158015611d3857600080fd5b505afa158015611d4c573d6000803e3d6000fd5b505050506040513d6020811015611d6257600080fd5b810190808051906020019092919050505060ff16905060008673ffffffffffffffffffffffffffffffffffffffff166341976e09600a8581548110611da357fe5b9060005260206000200160009054906101000a900473ffffffffffffffffffffffffffffffffffffffff166040518263ffffffff1660e01b8152600401808273ffffffffffffffffffffffffffffffffffffffff16815260200191505060206040518083038186803b158015611e1857600080fd5b505afa158015611e2c573d6000803e3d6000fd5b505050506040513d6020811015611e4257600080fd5b810190808051906020019092919050505090506000611e9283600a0a611e8484898881518110611e6e57fe5b6020026020010151613bfd90919063ffffffff16565b613c3490919063ffffffff16565b9050611ea78186613df890919063ffffffff16565b94505050508080600101915050611b3d565b5082828296509650965050505050909192565b60065481565b6000600360009054906101000a900473ffffffffffffffffffffffffffffffffffffffff16905090565b60076020528060005260406000206000915090505481565b60018054600181600116156101000203166002900480601f016020809104026020016040519081016040528092919081815260200182805460018160011615610100020316600290048015611faa5780601f10611f7f57610100808354040283529160200191611faa565b820191906000526020600020905b815481529060010190602001808311611f8d57829003601f168201915b505050505081565b60008060009054906101000a900473ffffffffffffffffffffffffffffffffffffffff1673ffffffffffffffffffffffffffffffffffffffff166304433bbc6040518163ffffffff1660e01b81526004018080602001828103825260098152602001807f506f6f6c50726f7879000000000000000000000000000000000000000000000081525060200191505060206040518083038186803b15801561205757600080fd5b505afa15801561206b573d6000803e3d6000fd5b505050506040513d602081101561208157600080fd5b810190808051906020019092919050505090508073ffffffffffffffffffffffffffffffffffffffff163373ffffffffffffffffffffffffffffffffffffffff1614612118576040517f08c379a00000000000000000000000000000000000000000000000000000000081526004018080602001828103825260348152602001806143c16034913960400191505060405180910390fd5b600073ffffffffffffffffffffffffffffffffffffffff168273ffffffffffffffffffffffffffffffffffffffff1614156121bb576040517f08c379a00000000000000000000000000000000000000000000000000000000081526004018080602001828103825260148152602001807f496e76616c6964206661726d206164647265737300000000000000000000000081525060200191505060405180910390fd5b81600560006101000a81548173ffffffffffffffffffffffffffffffffffffffff021916908373ffffffffffffffffffffffffffffffffffffffff1602179055505050565b6009602052816000526040600020602052806000526040600020600091509150505481565b600360009054906101000a900473ffffffffffffffffffffffffffffffffffffffff1681565b600560009054906101000a900473ffffffffffffffffffffffffffffffffffffffff1681565b60008060009054906101000a900473ffffffffffffffffffffffffffffffffffffffff1673ffffffffffffffffffffffffffffffffffffffff166304433bbc6040518163ffffffff1660e01b81526004018080602001828103825260098152602001807f506f6f6c50726f7879000000000000000000000000000000000000000000000081525060200191505060206040518083038186803b15801561231657600080fd5b505afa15801561232a573d6000803e3d6000fd5b505050506040513d602081101561234057600080fd5b810190808051906020019092919050505090508073ffffffffffffffffffffffffffffffffffffffff163373ffffffffffffffffffffffffffffffffffffffff16146123d7576040517f08c379a00000000000000000000000000000000000000000000000000000000081526004018080602001828103825260348152602001806143c16034913960400191505060405180910390fd5b60008060009054906101000a900473ffffffffffffffffffffffffffffffffffffffff1673ffffffffffffffffffffffffffffffffffffffff166304433bbc6040518163ffffffff1660e01b81526004018080602001828103825260088152602001807f53657474696e677300000000000000000000000000000000000000000000000081525060200191505060206040518083038186803b15801561247c57600080fd5b505afa158015612490573d6000803e3d6000fd5b505050506040513d60208110156124a657600080fd5b8101908080519060200190929190505050905060008060009054906101000a900473ffffffffffffffffffffffffffffffffffffffff1673ffffffffffffffffffffffffffffffffffffffff166304433bbc6040518163ffffffff1660e01b81526004018080602001828103825260128152602001807f426173655562657377617041646170746572000000000000000000000000000081525060200191505060206040518083038186803b15801561255e57600080fd5b505afa158015612572573d6000803e3d6000fd5b505050506040513d602081101561258857600080fd5b8101908080519060200190929190505050905060008273ffffffffffffffffffffffffffffffffffffffff1663be781b1c6040518163ffffffff1660e01b815260040160206040518083038186803b1580156125e357600080fd5b505afa1580156125f7573d6000803e3d6000fd5b505050506040513d602081101561260d57600080fd5b8101908080519060200190929190505050905060008511612679576040517f08c379a000000000000000000000000000000000000000000000000000000000815260040180806020018281038252602d81526020018061443d602d913960400191505060405180910390fd5b600073ffffffffffffffffffffffffffffffffffffffff168773ffffffffffffffffffffffffffffffffffffffff16141561271c576040517f08c379a00000000000000000000000000000000000000000000000000000000081526004018080602001828103825260148152602001807f496e76616c69642063757272656e6379206b657900000000000000000000000081525060200191505060405180910390fd5b8273ffffffffffffffffffffffffffffffffffffffff1663571a0885886040518263ffffffff1660e01b8152600401808273ffffffffffffffffffffffffffffffffffffffff16815260200191505060206040518083038186803b15801561278357600080fd5b505afa158015612797573d6000803e3d6000fd5b505050506040513d60208110156127ad57600080fd5b8101908080519060200190929190505050612830576040517f08c379a000000000000000000000000000000000000000000000000000000000815260040180806020018281038252601d8152602001807f43757272656e6379206b6579206973206e6f7420617661696c61626c6500000081525060200191505060405180910390fd5b60008773ffffffffffffffffffffffffffffffffffffffff1663313ce5676040518163ffffffff1660e01b815260040160206040518083038186803b15801561287857600080fd5b505afa15801561288c573d6000803e3d6000fd5b505050506040513d60208110156128a257600080fd5b810190808051906020019092919050505060ff16905060008373ffffffffffffffffffffffffffffffffffffffff166341976e098a6040518263ffffffff1660e01b8152600401808273ffffffffffffffffffffffffffffffffffffffff16815260200191505060206040518083038186803b15801561292157600080fd5b505afa158015612935573d6000803e3d6000fd5b505050506040513d602081101561294b57600080fd5b8101908080519060200190929190505050905060008061298984600a0a61297b858c613bfd90919063ffffffff16565b613c3490919063ffffffff16565b90508915612cce578061299a611605565b1015612a0e576040517f08c379a00000000000000000000000000000000000000000000000000000000081526004018080602001828103825260108152602001807f4e6f7420656e6f7567682066756e64730000000000000000000000000000000081525060200191505060405180910390fd5b60008b73ffffffffffffffffffffffffffffffffffffffff166370a08231306040518263ffffffff1660e01b8152600401808273ffffffffffffffffffffffffffffffffffffffff16815260200191505060206040518083038186803b158015612a7757600080fd5b505afa158015612a8b573d6000803e3d6000fd5b505050506040513d6020811015612aa157600080fd5b81019080805190602001909291905050501415612b1c57600a8b9080600181540180825580915050600190039060005260206000200160009091909190916101000a81548173ffffffffffffffffffffffffffffffffffffffff021916908373ffffffffffffffffffffffffffffffffffffffff1602179055505b8473ffffffffffffffffffffffffffffffffffffffff1663a9059cbb87836040518363ffffffff1660e01b8152600401808373ffffffffffffffffffffffffffffffffffffffff16815260200182815260200192505050602060405180830381600087803b158015612b8d57600080fd5b505af1158015612ba1573d6000803e3d6000fd5b505050506040513d6020811015612bb757600080fd5b8101908080519060200190929190505050506000612bf26064612be4605f8d613bfd90919063ffffffff16565b613c3490919063ffffffff16565b90508673ffffffffffffffffffffffffffffffffffffffff1663e5414cd0878e85856040518563ffffffff1660e01b8152600401808573ffffffffffffffffffffffffffffffffffffffff1681526020018473ffffffffffffffffffffffffffffffffffffffff168152602001838152602001828152602001945050505050602060405180830381600087803b158015612c8b57600080fd5b505af1158015612c9f573d6000803e3d6000fd5b505050506040513d6020811015612cb557600080fd5b81019080805190602001909291905050509250506131e1565b60005b600a80549050811015612d5b57600a8181548110612ceb57fe5b9060005260206000200160009054906101000a900473ffffffffffffffffffffffffffffffffffffffff1673ffffffffffffffffffffffffffffffffffffffff168c73ffffffffffffffffffffffffffffffffffffffff161415612d4e57612d5b565b8080600101915050612cd1565b600a805490508110612db8576040517f08c379a00000000000000000000000000000000000000000000000000000000081526004018080602001828103825260268152602001806144176026913960400191505060405180910390fd5b898c73ffffffffffffffffffffffffffffffffffffffff166370a08231306040518263ffffffff1660e01b8152600401808273ffffffffffffffffffffffffffffffffffffffff16815260200191505060206040518083038186803b158015612e2057600080fd5b505afa158015612e34573d6000803e3d6000fd5b505050506040513d6020811015612e4a57600080fd5b81019080805190602001909291905050501015612eb2576040517f08c379a00000000000000000000000000000000000000000000000000000000081526004018080602001828103825260228152602001806143f56022913960400191505060405180910390fd5b8b73ffffffffffffffffffffffffffffffffffffffff1663a9059cbb888c6040518363ffffffff1660e01b8152600401808373ffffffffffffffffffffffffffffffffffffffff16815260200182815260200192505050602060405180830381600087803b158015612f2357600080fd5b505af1158015612f37573d6000803e3d6000fd5b505050506040513d6020811015612f4d57600080fd5b8101908080519060200190929190505050506000612f886064612f7a605f86613bfd90919063ffffffff16565b613c3490919063ffffffff16565b90508773ffffffffffffffffffffffffffffffffffffffff1663e5414cd08e898e856040518563ffffffff1660e01b8152600401808573ffffffffffffffffffffffffffffffffffffffff1681526020018473ffffffffffffffffffffffffffffffffffffffff168152602001838152602001828152602001945050505050602060405180830381600087803b15801561302157600080fd5b505af1158015613035573d6000803e3d6000fd5b505050506040513d602081101561304b57600080fd5b8101908080519060200190929190505050935060008d73ffffffffffffffffffffffffffffffffffffffff166370a08231306040518263ffffffff1660e01b8152600401808273ffffffffffffffffffffffffffffffffffffffff16815260200191505060206040518083038186803b1580156130c757600080fd5b505afa1580156130db573d6000803e3d6000fd5b505050506040513d60208110156130f157600080fd5b810190808051906020019092919050505014156131de57600a6001600a80549050038154811061311d57fe5b9060005260206000200160009054906101000a900473ffffffffffffffffffffffffffffffffffffffff16600a838154811061315557fe5b9060005260206000200160006101000a81548173ffffffffffffffffffffffffffffffffffffffff021916908373ffffffffffffffffffffffffffffffffffffffff160217905550600a8054806131a857fe5b6001900381819060005260206000200160006101000a81549073ffffffffffffffffffffffffffffffffffffffff021916905590555b50505b5050505050505050505050565b60008060009054906101000a900473ffffffffffffffffffffffffffffffffffffffff1673ffffffffffffffffffffffffffffffffffffffff166304433bbc6040518163ffffffff1660e01b81526004018080602001828103825260098152602001807f506f6f6c50726f7879000000000000000000000000000000000000000000000081525060200191505060206040518083038186803b15801561329357600080fd5b505afa1580156132a7573d6000803e3d6000fd5b505050506040513d60208110156132bd57600080fd5b810190808051906020019092919050505090508073ffffffffffffffffffffffffffffffffffffffff163373ffffffffffffffffffffffffffffffffffffffff1614613354576040517f08c379a00000000000000000000000000000000000000000000000000000000081526004018080602001828103825260348152602001806143c16034913960400191505060405180910390fd5b600073ffffffffffffffffffffffffffffffffffffffff168373ffffffffffffffffffffffffffffffffffffffff1614156133f7576040517f08c379a00000000000000000000000000000000000000000000000000000000081526004018080602001828103825260148152602001807f496e76616c69642075736572206164647265737300000000000000000000000081525060200191505060405180910390fd5b60008211613450576040517f08c379a00000000000000000000000000000000000000000000000000000000081526004018080602001828103825260218152602001806143a06021913960400191505060405180910390fd5b600061345a61199a565b905060006134c46002546134b6600760008973ffffffffffffffffffffffffffffffffffffffff1673ffffffffffffffffffffffffffffffffffffffff1681526020019081526020016000205485613bfd90919063ffffffff16565b613c3490919063ffffffff16565b90508381101561353c576040517f08c379a000000000000000000000000000000000000000000000000000000000815260040180806020018281038252601c8152602001807f4e6f7420656e6f7567682066756e647320746f2077697468647261770000000081525060200191505060405180910390fd5b6000600860008773ffffffffffffffffffffffffffffffffffffffff1673ffffffffffffffffffffffffffffffffffffffff16815260200190815260200160002054821161358b5760006135de565b6135dd600860008873ffffffffffffffffffffffffffffffffffffffff1673ffffffffffffffffffffffffffffffffffffffff1681526020019081526020016000205483613c4d90919063ffffffff16565b5b9050613605826135f78784613bfd90919063ffffffff16565b613c3490919063ffffffff16565b905061362f606461362160045484613bfd90919063ffffffff16565b613c3490919063ffffffff16565b905060008111156136445761364381613e14565b5b60006136aa8361369c88600860008c73ffffffffffffffffffffffffffffffffffffffff1673ffffffffffffffffffffffffffffffffffffffff16815260200190815260200160002054613bfd90919063ffffffff16565b613c3490919063ffffffff16565b905060006137128461370489600760008d73ffffffffffffffffffffffffffffffffffffffff1673ffffffffffffffffffffffffffffffffffffffff16815260200190815260200160002054613bfd90919063ffffffff16565b613c3490919063ffffffff16565b905061376681600760008b73ffffffffffffffffffffffffffffffffffffffff1673ffffffffffffffffffffffffffffffffffffffff16815260200190815260200160002054613c4d90919063ffffffff16565b600760008a73ffffffffffffffffffffffffffffffffffffffff1673ffffffffffffffffffffffffffffffffffffffff168152602001908152602001600020819055506137be81600254613c4d90919063ffffffff16565b60028190555061381682600860008b73ffffffffffffffffffffffffffffffffffffffff1673ffffffffffffffffffffffffffffffffffffffff16815260200190815260200160002054613c4d90919063ffffffff16565b600860008a73ffffffffffffffffffffffffffffffffffffffff1673ffffffffffffffffffffffffffffffffffffffff1681526020019081526020016000208190555061386e82600654613c4d90919063ffffffff16565b60068190555060005b600a80549050811015613a8f576000600a828154811061389357fe5b9060005260206000200160009054906101000a900473ffffffffffffffffffffffffffffffffffffffff1673ffffffffffffffffffffffffffffffffffffffff166370a08231306040518263ffffffff1660e01b8152600401808273ffffffffffffffffffffffffffffffffffffffff16815260200191505060206040518083038186803b15801561392457600080fd5b505afa158015613938573d6000803e3d6000fd5b505050506040513d602081101561394e57600080fd5b81019080805190602001909291905050509050600061399a8861398c61397d898e613c4d90919063ffffffff16565b85613bfd90919063ffffffff16565b613c3490919063ffffffff16565b9050600a83815481106139a957fe5b9060005260206000200160009054906101000a900473ffffffffffffffffffffffffffffffffffffffff1673ffffffffffffffffffffffffffffffffffffffff1663a9059cbb8c836040518363ffffffff1660e01b8152600401808373ffffffffffffffffffffffffffffffffffffffff16815260200182815260200192505050602060405180830381600087803b158015613a4457600080fd5b505af1158015613a58573d6000803e3d6000fd5b505050506040513d6020811015613a6e57600080fd5b81019080805190602001909291905050505050508080600101915050613877565b5060006002541415613b0857600a6000613aa9919061429c565b600067ffffffffffffffff81118015613ac157600080fd5b50604051908082528060200260200182016040528015613af05781602001602082028036833780820191505090505b50600a9080519060200190613b069291906142bd565b505b5050505050505050565b80600960008573ffffffffffffffffffffffffffffffffffffffff1673ffffffffffffffffffffffffffffffffffffffff16815260200190815260200160002060008473ffffffffffffffffffffffffffffffffffffffff1673ffffffffffffffffffffffffffffffffffffffff168152602001908152602001600020819055508173ffffffffffffffffffffffffffffffffffffffff168373ffffffffffffffffffffffffffffffffffffffff167f8c5be1e5ebec7d5bd14f71427d1e84f3dd0314c0f7b2291e5b200ac8c7c3b925836040518082815260200191505060405180910390a3505050565b600080831415613c105760009050613c2e565b6000828402905082848281613c2157fe5b0414613c2957fe5b809150505b92915050565b600080828481613c4057fe5b0490508091505092915050565b600082821115613c5957fe5b818303905092915050565b613cb681600760008673ffffffffffffffffffffffffffffffffffffffff1673ffffffffffffffffffffffffffffffffffffffff16815260200190815260200160002054613c4d90919063ffffffff16565b600760008573ffffffffffffffffffffffffffffffffffffffff1673ffffffffffffffffffffffffffffffffffffffff16815260200190815260200160002081905550613d4b81600760008573ffffffffffffffffffffffffffffffffffffffff1673ffffffffffffffffffffffffffffffffffffffff16815260200190815260200160002054613df890919063ffffffff16565b600760008473ffffffffffffffffffffffffffffffffffffffff1673ffffffffffffffffffffffffffffffffffffffff168152602001908152602001600020819055508173ffffffffffffffffffffffffffffffffffffffff168373ffffffffffffffffffffffffffffffffffffffff167fddf252ad1be2c89b69c2b068fc378daa952ba7f163c4a11628f55a4df523b3ef836040518082815260200191505060405180910390a3505050565b600080828401905083811015613e0a57fe5b8091505092915050565b6000613e1e61199a565b905060008060009054906101000a900473ffffffffffffffffffffffffffffffffffffffff1673ffffffffffffffffffffffffffffffffffffffff166304433bbc6040518163ffffffff1660e01b81526004018080602001828103825260078152602001807f466565506f6f6c0000000000000000000000000000000000000000000000000081525060200191505060206040518083038186803b158015613ec557600080fd5b505afa158015613ed9573d6000803e3d6000fd5b505050506040513d6020811015613eef57600080fd5b810190808051906020019092919050505090508073ffffffffffffffffffffffffffffffffffffffff16630939b690600a6040518263ffffffff1660e01b815260040180806020018281038252838181548152602001915080548015613faa57602002820191906000526020600020905b8160009054906101000a900473ffffffffffffffffffffffffffffffffffffffff1673ffffffffffffffffffffffffffffffffffffffff1681526020019060010190808311613f60575b505092505050600060405180830381600087803b158015613fca57600080fd5b505af1158015613fde573d6000803e3d6000fd5b5050505060005b600a805490508110156141eb576000600a828154811061400157fe5b9060005260206000200160009054906101000a900473ffffffffffffffffffffffffffffffffffffffff1673ffffffffffffffffffffffffffffffffffffffff166370a08231306040518263ffffffff1660e01b8152600401808273ffffffffffffffffffffffffffffffffffffffff16815260200191505060206040518083038186803b15801561409257600080fd5b505afa1580156140a6573d6000803e3d6000fd5b505050506040513d60208110156140bc57600080fd5b8101908080519060200190929190505050905060006140f6856140e88885613bfd90919063ffffffff16565b613c3490919063ffffffff16565b9050600a838154811061410557fe5b9060005260206000200160009054906101000a900473ffffffffffffffffffffffffffffffffffffffff1673ffffffffffffffffffffffffffffffffffffffff1663a9059cbb85836040518363ffffffff1660e01b8152600401808373ffffffffffffffffffffffffffffffffffffffff16815260200182815260200192505050602060405180830381600087803b1580156141a057600080fd5b505af11580156141b4573d6000803e3d6000fd5b505050506040513d60208110156141ca57600080fd5b81019080805190602001909291905050505050508080600101915050613fe5565b508073ffffffffffffffffffffffffffffffffffffffff16631dfb9aae600360009054906101000a900473ffffffffffffffffffffffffffffffffffffffff16856040518363ffffffff1660e01b8152600401808373ffffffffffffffffffffffffffffffffffffffff16815260200182815260200192505050600060405180830381600087803b15801561427f57600080fd5b505af1158015614293573d6000803e3d6000fd5b50505050505050565b50805460008255906000526020600020908101906142ba9190614347565b50565b828054828255906000526020600020908101928215614336579160200282015b828111156143355782518260006101000a81548173ffffffffffffffffffffffffffffffffffffffff021916908373ffffffffffffffffffffffffffffffffffffffff160217905550916020019190600101906142dd565b5b5090506143439190614364565b5090565b5b80821115614360576000816000905550600101614348565b5090565b5b8082111561439b57600081816101000a81549073ffffffffffffffffffffffffffffffffffffffff021916905550600101614365565b509056fe5769746864726177616c206d7573742062652067726561746572207468616e2030506f6f6c3a204f6e6c7920506f6f6c50726f787920636f6e74726163742063616e2063616c6c20746869732066756e6374696f6e4e6f7420656e6f75676820746f6b656e7320696e20746869732063757272656e6379446f6e27742068617665206120706f736974696f6e20696e20746869732063757272656e6379506f6f6c3a204e756d626572206f6620746f6b656e73206d7573742062652067726561746572207468616e2030a264697066735822122084b0c8346cbbe685afa067bed6e728be28bccb668d530598758d838eaf341ee664736f6c634300060c00334465706f73697420616d6f756e74206d7573742062652067726561746572207468616e20304f6e6c792074686520706f6f6c2773206d616e616765722063616e2063616c6c20746869732066756e6374696f6e43616e6e6f7420657863656564206d6178696d756d20706572666f726d616e6365206665654f6e6c792074686520636f6e7472616374206f776e65722063616e2063616c6c20746869732066756e6374696f6e5769746864726177616c20616d6f756e74206d7573742062652067726561746572207468616e2030506f6f6c50726f78793a204e756d626572206f6620746f6b656e73206d7573742062652067726561746572207468616e203043616e6e6f7420657863656564206d6178696d756d206e756d626572206f6620706f6f6c73207065722075736572506f6f6c206e616d65206d7573742068617665206c657373207468616e2033302063686172616374657273a2646970667358221220a31069aae7f7fcf614c3753dec7914869e933e1052ad39f003f3a31032961fbb64736f6c634300060c0033",
  "immutableReferences": {
    "2016": [
      {
        "length": 32,
        "start": 1942
      },
      {
        "length": 32,
        "start": 2830
      },
      {
        "length": 32,
        "start": 3749
      },
      {
        "length": 32,
        "start": 3921
      },
      {
        "length": 32,
        "start": 4338
      },
      {
        "length": 32,
        "start": 5338
      },
      {
        "length": 32,
        "start": 6681
      },
      {
        "length": 32,
        "start": 6823
      },
      {
        "length": 32,
        "start": 8819
      },
      {
        "length": 32,
        "start": 11231
      }
    ],
    "2604": [
      {
        "length": 32,
        "start": 2254
      }
    ]
  },
  "source": "pragma solidity >=0.5.0;\r\n\r\n//Interfaces\r\nimport './interfaces/IPool.sol';\r\nimport './interfaces/ISettings.sol';\r\nimport './interfaces/IAddressResolver.sol';\r\n\r\nimport './PoolManager.sol';\r\nimport './Ownable.sol';\r\n\r\ncontract PoolProxy is PoolManager {\r\n    using SafeMath for uint;\r\n\r\n    address private immutable _owner;\r\n\r\n    constructor(IAddressResolver addressResolver) PoolManager(addressResolver) public {\r\n        _owner = msg.sender;\r\n    }\r\n\r\n    /* ========== VIEWS ========== */\r\n\r\n    /**\r\n    * @dev Returns the address of each pool the user manages\r\n    * @param user Address of the user\r\n    * @return address[] The address of each pool the user manages\r\n    */\r\n    function getUserManagedPools(address user) public view returns(address[] memory) {\r\n        return _getUserManagedPools(user);\r\n    }\r\n\r\n    /**\r\n    * @dev Returns the address of each pool the user is invested in\r\n    * @param user Address of the user\r\n    * @return address[] The address of each pool the user is invested in\r\n    */\r\n    function getUserInvestedPools(address user) public view returns(address[] memory) {\r\n        return _getUserInvestedPools(user);\r\n    }\r\n\r\n    /**\r\n    * @dev Returns the address of each pool the user is staked in\r\n    * @param user Address of the user\r\n    * @return address[] The address of each pool the user is staked in\r\n    * @return uint Number of pools the user is staked in\r\n    */\r\n    function getUserStakedPools(address user) public view returns(address[] memory, uint) {\r\n        return _getUserStakedPools(user);\r\n    }\r\n\r\n    /**\r\n    * @dev Returns the address of each available pool\r\n    * @return address[] The address of each available pool\r\n    */\r\n    function getAvailablePools() public view returns(address[] memory) {\r\n        return _getAvailablePools();\r\n    }\r\n\r\n    /* ========== MUTATIVE FUNCTIONS ========== */\r\n\r\n    /**\r\n    * @dev Creates a new pool\r\n    * @param poolName Name of the pool\r\n    * @param performanceFee Performance fee for the pool\r\n    */\r\n    function createPool(string memory poolName, uint performanceFee) external {\r\n        address settingsAddress = ADDRESS_RESOLVER.getContractAddress(\"Settings\");\r\n        uint maximumPerformanceFee = ISettings(settingsAddress).getParameterValue(\"MaximumPerformanceFee\");\r\n        uint maximumNumberOfPoolsPerUser = ISettings(settingsAddress).getParameterValue(\"MaximumNumberOfPoolsPerUser\");\r\n\r\n        require(bytes(poolName).length < 30, \"Pool name must have less than 30 characters\");\r\n        require(performanceFee <= maximumPerformanceFee, \"Cannot exceed maximum performance fee\");\r\n        require(_getUserManagedPools(msg.sender).length < maximumNumberOfPoolsPerUser, \"Cannot exceed maximum number of pools per user\");\r\n\r\n        address poolAddress = _createPool(poolName, performanceFee, msg.sender);\r\n\r\n        ADDRESS_RESOLVER.addPoolAddress(poolAddress);\r\n    }\r\n\r\n    /**\r\n    * @dev Withdraw cUSD from the given pool\r\n    * @param poolAddress Address of the pool\r\n    * @param amount Amount of cUSD to withdraw from the pool\r\n    */\r\n    function withdraw(address poolAddress, uint amount) external isValidPoolAddress(poolAddress) {\r\n        require(amount > 0, \"Withdrawal amount must be greater than 0\");\r\n\r\n        IPool(poolAddress).withdraw(msg.sender, amount);\r\n\r\n        _withdraw(msg.sender, poolAddress);\r\n\r\n        emit WithdrewFundsFromPool(msg.sender, poolAddress, amount, block.timestamp);\r\n    }\r\n\r\n    /**\r\n    * @dev Deposit cUSD into the given pool\r\n    * @notice Call StableToken.approve() before calling this function\r\n    * @param poolAddress Address of the pool\r\n    * @param amount Amount of cUSD to deposit into the pool\r\n    */\r\n    function deposit(address poolAddress, uint amount) external isValidPoolAddress(poolAddress) {\r\n        require(amount > 0, \"Deposit amount must be greater than 0\");\r\n\r\n        _deposit(msg.sender, poolAddress);\r\n\r\n        address settingsAddress = ADDRESS_RESOLVER.getContractAddress(\"Settings\");\r\n        address stableCoinAddress = ISettings(settingsAddress).getStableCoinAddress();\r\n\r\n        IERC20(stableCoinAddress).transferFrom(msg.sender, address(this), amount);\r\n        IERC20(stableCoinAddress).approve(poolAddress, amount);\r\n        IPool(poolAddress).deposit(msg.sender, amount);\r\n\r\n        emit DepositedFundsIntoPool(msg.sender, poolAddress, amount, block.timestamp);\r\n    }\r\n\r\n    /**\r\n    * @dev Places an order to buy/sell the given currency on behalf of the pool\r\n    * @param poolAddress Address of the pool\r\n    * @param currencyKey Address of currency to trade\r\n    * @param buyOrSell Whether the user is buying or selling\r\n    * @param numberOfTokens Number of tokens of the given currency\r\n    */\r\n    function placeOrder(address poolAddress, address currencyKey, bool buyOrSell, uint numberOfTokens) external isValidPoolAddress(poolAddress) onlyManager(poolAddress) {\r\n        require(poolAddress != address(0), \"Invalid pool address\");\r\n        require(currencyKey != address(0), \"Invalid currency key\");\r\n        require(numberOfTokens > 0, \"PoolProxy: Number of tokens must be greater than 0\");\r\n\r\n        IPool(poolAddress).placeOrder(currencyKey, buyOrSell, numberOfTokens);\r\n\r\n        emit PlacedOrder(poolAddress, currencyKey, buyOrSell, numberOfTokens, block.timestamp);\r\n    }\r\n\r\n    /**\r\n    * @dev Sets the pool's farm address to the specified address\r\n    * @notice Only the PoolProxy contract owner can call this function\r\n    * @param poolAddress Address of the pool\r\n    * @param farmAddress Address of the farm\r\n    */\r\n    function setFarmAddress(address poolAddress, address farmAddress) external isValidPoolAddress(poolAddress) {\r\n        require(msg.sender == _owner, \"Only the contract owner can call this function\");\r\n        require(farmAddress != address(0), \"Invalid farm address\");\r\n\r\n        IPool(poolAddress).setFarmAddress(farmAddress);\r\n\r\n        emit UpdatedFarmAddress(poolAddress, farmAddress, block.timestamp);\r\n    }\r\n\r\n    /* ========== EVENTS ========== */\r\n\r\n    event DepositedFundsIntoPool(address indexed user, address indexed poolAddress, uint amount, uint timestamp);\r\n    event WithdrewFundsFromPool(address indexed user, address indexed poolAddress, uint amount, uint timestamp);\r\n    event PlacedOrder(address indexed poolAddress, address indexed currencyKey, bool buyOrSell, uint numberOfTokens, uint timestamp);\r\n    event UpdatedFarmAddress(address indexed poolAddress, address farmAddress, uint timestamp);\r\n}",
  "sourcePath": "C:/Users/xavie/OneDrive/Desktop/TradeGen/Github/tradegen/contracts/PoolProxy.sol",
  "compiler": {
    "name": "solc",
    "version": "0.6.12+commit.27d51765.Emscripten.clang"
  },
  "schemaVersion": "3.4.1",
  "updatedAt": "2021-07-20T02:22:18.302Z",
  "devdoc": {
    "kind": "dev",
    "methods": {
      "createPool(string,uint256)": {
        "details": "Creates a new pool",
        "params": {
          "performanceFee": "Performance fee for the pool",
          "poolName": "Name of the pool"
        }
      },
      "deposit(address,uint256)": {
        "details": "Deposit cUSD into the given pool",
        "params": {
          "amount": "Amount of cUSD to deposit into the pool",
          "poolAddress": "Address of the pool"
        }
      },
      "getAvailablePools()": {
        "details": "Returns the address of each available pool",
        "returns": {
          "_0": "address[] The address of each available pool"
        }
      },
      "getUserInvestedPools(address)": {
        "details": "Returns the address of each pool the user is invested in",
        "params": {
          "user": "Address of the user"
        },
        "returns": {
          "_0": "address[] The address of each pool the user is invested in"
        }
      },
      "getUserManagedPools(address)": {
        "details": "Returns the address of each pool the user manages",
        "params": {
          "user": "Address of the user"
        },
        "returns": {
          "_0": "address[] The address of each pool the user manages"
        }
      },
      "getUserStakedPools(address)": {
        "details": "Returns the address of each pool the user is staked in",
        "params": {
          "user": "Address of the user"
        },
        "returns": {
          "_0": "address[] The address of each pool the user is staked in",
          "_1": "uint Number of pools the user is staked in"
        }
      },
      "placeOrder(address,address,bool,uint256)": {
        "details": "Places an order to buy/sell the given currency on behalf of the pool",
        "params": {
          "buyOrSell": "Whether the user is buying or selling",
          "currencyKey": "Address of currency to trade",
          "numberOfTokens": "Number of tokens of the given currency",
          "poolAddress": "Address of the pool"
        }
      },
      "setFarmAddress(address,address)": {
        "details": "Sets the pool's farm address to the specified address",
        "params": {
          "farmAddress": "Address of the farm",
          "poolAddress": "Address of the pool"
        }
      },
      "withdraw(address,uint256)": {
        "details": "Withdraw cUSD from the given pool",
        "params": {
          "amount": "Amount of cUSD to withdraw from the pool",
          "poolAddress": "Address of the pool"
        }
      }
    },
    "version": 1
  },
  "userdoc": {
    "kind": "user",
    "methods": {
      "deposit(address,uint256)": {
        "notice": "Call StableToken.approve() before calling this function"
      },
      "setFarmAddress(address,address)": {
        "notice": "Only the PoolProxy contract owner can call this function"
      }
    },
    "version": 1
  }
}